{
	"contracts/Auction.sol": {
		"Auction": {
			"abi": [
				{
					"inputs": [
						{
							"internalType": "uint256",
							"name": "biddingTime",
							"type": "uint256"
						},
						{
							"internalType": "string",
							"name": "secret",
							"type": "string"
						},
						{
							"internalType": "address payable",
							"name": "beneficiaryAddress",
							"type": "address"
						}
					],
					"stateMutability": "nonpayable",
					"type": "constructor"
				},
				{
					"inputs": [],
					"name": "AuctionAlreadyEnded",
					"type": "error"
				},
				{
					"inputs": [
						{
							"internalType": "uint256",
							"name": "highestBid",
							"type": "uint256"
						}
					],
					"name": "BidNotHighEnough",
					"type": "error"
				},
				{
					"inputs": [],
					"name": "NotYetEnded",
					"type": "error"
				},
				{
					"anonymous": false,
					"inputs": [
						{
							"indexed": false,
							"internalType": "uint256",
							"name": "_highestBid",
							"type": "uint256"
						},
						{
							"indexed": false,
							"internalType": "address",
							"name": "_highestBidder",
							"type": "address"
						}
					],
					"name": "AuctionHasEnded",
					"type": "event"
				},
				{
					"anonymous": false,
					"inputs": [
						{
							"indexed": false,
							"internalType": "address",
							"name": "bidder",
							"type": "address"
						},
						{
							"indexed": false,
							"internalType": "uint256",
							"name": "bid",
							"type": "uint256"
						},
						{
							"indexed": false,
							"internalType": "uint256",
							"name": "_difference",
							"type": "uint256"
						}
					],
					"name": "HighestBidIncreased",
					"type": "event"
				},
				{
					"inputs": [],
					"name": "auctionEnd",
					"outputs": [],
					"stateMutability": "nonpayable",
					"type": "function"
				},
				{
					"inputs": [],
					"name": "auctionEndTime",
					"outputs": [
						{
							"internalType": "uint256",
							"name": "",
							"type": "uint256"
						}
					],
					"stateMutability": "view",
					"type": "function"
				},
				{
					"inputs": [],
					"name": "beneficiary",
					"outputs": [
						{
							"internalType": "address payable",
							"name": "",
							"type": "address"
						}
					],
					"stateMutability": "view",
					"type": "function"
				},
				{
					"inputs": [],
					"name": "bid",
					"outputs": [],
					"stateMutability": "payable",
					"type": "function"
				},
				{
					"inputs": [],
					"name": "difference",
					"outputs": [
						{
							"internalType": "uint256",
							"name": "",
							"type": "uint256"
						}
					],
					"stateMutability": "view",
					"type": "function"
				},
				{
					"inputs": [],
					"name": "getSecretMessage",
					"outputs": [
						{
							"internalType": "string",
							"name": "",
							"type": "string"
						}
					],
					"stateMutability": "view",
					"type": "function"
				},
				{
					"inputs": [],
					"name": "highestBid",
					"outputs": [
						{
							"internalType": "uint256",
							"name": "",
							"type": "uint256"
						}
					],
					"stateMutability": "view",
					"type": "function"
				},
				{
					"inputs": [],
					"name": "highestBidder",
					"outputs": [
						{
							"internalType": "address",
							"name": "",
							"type": "address"
						}
					],
					"stateMutability": "view",
					"type": "function"
				},
				{
					"inputs": [],
					"name": "withdraw",
					"outputs": [
						{
							"internalType": "bool",
							"name": "",
							"type": "bool"
						}
					],
					"stateMutability": "nonpayable",
					"type": "function"
				}
			],
			"devdoc": {
				"kind": "dev",
				"methods": {},
				"version": 1
			},
			"evm": {
				"assembly": "    /* \"contracts/Auction.sol\":61:2616  contract Auction{... */\n  mstore(0x40, 0x80)\n    /* \"contracts/Auction.sol\":620:881  constructor(... */\n  callvalue\n  dup1\n  iszero\n  tag_1\n  jumpi\n  revert(0x00, 0x00)\ntag_1:\n  pop\n  mload(0x40)\n  sub(codesize, bytecodeSize)\n  dup1\n  bytecodeSize\n  dup4\n  codecopy\n  dup2\n  dup2\n  add\n  0x40\n  mstore\n  dup2\n  add\n  swap1\n  tag_2\n  swap2\n  swap1\n  tag_3\n  jump\t// in\ntag_2:\n    /* \"contracts/Auction.sol\":767:785  beneficiaryAddress */\n  dup1\n    /* \"contracts/Auction.sol\":754:765  beneficiary */\n  0x00\n  0x00\n    /* \"contracts/Auction.sol\":754:785  beneficiary= beneficiaryAddress */\n  0x0100\n  exp\n  dup2\n  sload\n  dup2\n  0xffffffffffffffffffffffffffffffffffffffff\n  mul\n  not\n  and\n  swap1\n  dup4\n  0xffffffffffffffffffffffffffffffffffffffff\n  and\n  mul\n  or\n  swap1\n  sstore\n  pop\n    /* \"contracts/Auction.sol\":831:842  biddingTime */\n  dup3\n    /* \"contracts/Auction.sol\":813:828  block.timestamp */\n  timestamp\n    /* \"contracts/Auction.sol\":813:842  block.timestamp + biddingTime */\n  tag_6\n  swap2\n  swap1\n  tag_7\n  jump\t// in\ntag_6:\n    /* \"contracts/Auction.sol\":796:810  auctionEndTime */\n  0x01\n    /* \"contracts/Auction.sol\":796:842  auctionEndTime = block.timestamp + biddingTime */\n  dup2\n  swap1\n  sstore\n  pop\n    /* \"contracts/Auction.sol\":867:873  secret */\n  dup2\n    /* \"contracts/Auction.sol\":853:866  secretMessage */\n  0x02\n    /* \"contracts/Auction.sol\":853:873  secretMessage=secret */\n  swap1\n  dup2\n  tag_8\n  swap2\n  swap1\n  tag_9\n  jump\t// in\ntag_8:\n  pop\n    /* \"contracts/Auction.sol\":620:881  constructor(... */\n  pop\n  pop\n  pop\n    /* \"contracts/Auction.sol\":61:2616  contract Auction{... */\n  jump(tag_10)\n    /* \"#utility.yul\":7:82   */\ntag_11:\n    /* \"#utility.yul\":40:46   */\n  0x00\n    /* \"#utility.yul\":73:75   */\n  0x40\n    /* \"#utility.yul\":67:76   */\n  mload\n    /* \"#utility.yul\":57:76   */\n  swap1\n  pop\n    /* \"#utility.yul\":7:82   */\n  swap1\n  jump\t// out\n    /* \"#utility.yul\":88:205   */\ntag_12:\n    /* \"#utility.yul\":197:198   */\n  0x00\n    /* \"#utility.yul\":194:195   */\n  0x00\n    /* \"#utility.yul\":187:199   */\n  revert\n    /* \"#utility.yul\":211:328   */\ntag_13:\n    /* \"#utility.yul\":320:321   */\n  0x00\n    /* \"#utility.yul\":317:318   */\n  0x00\n    /* \"#utility.yul\":310:322   */\n  revert\n    /* \"#utility.yul\":334:411   */\ntag_14:\n    /* \"#utility.yul\":371:378   */\n  0x00\n    /* \"#utility.yul\":400:405   */\n  dup2\n    /* \"#utility.yul\":389:405   */\n  swap1\n  pop\n    /* \"#utility.yul\":334:411   */\n  swap2\n  swap1\n  pop\n  jump\t// out\n    /* \"#utility.yul\":417:539   */\ntag_15:\n    /* \"#utility.yul\":490:514   */\n  tag_56\n    /* \"#utility.yul\":508:513   */\n  dup2\n    /* \"#utility.yul\":490:514   */\n  tag_14\n  jump\t// in\ntag_56:\n    /* \"#utility.yul\":483:488   */\n  dup2\n    /* \"#utility.yul\":480:515   */\n  eq\n    /* \"#utility.yul\":470:533   */\n  tag_57\n  jumpi\n    /* \"#utility.yul\":529:530   */\n  0x00\n    /* \"#utility.yul\":526:527   */\n  0x00\n    /* \"#utility.yul\":519:531   */\n  revert\n    /* \"#utility.yul\":470:533   */\ntag_57:\n    /* \"#utility.yul\":417:539   */\n  pop\n  jump\t// out\n    /* \"#utility.yul\":545:688   */\ntag_16:\n    /* \"#utility.yul\":602:607   */\n  0x00\n    /* \"#utility.yul\":633:639   */\n  dup2\n    /* \"#utility.yul\":627:640   */\n  mload\n    /* \"#utility.yul\":618:640   */\n  swap1\n  pop\n    /* \"#utility.yul\":649:682   */\n  tag_59\n    /* \"#utility.yul\":676:681   */\n  dup2\n    /* \"#utility.yul\":649:682   */\n  tag_15\n  jump\t// in\ntag_59:\n    /* \"#utility.yul\":545:688   */\n  swap3\n  swap2\n  pop\n  pop\n  jump\t// out\n    /* \"#utility.yul\":694:811   */\ntag_17:\n    /* \"#utility.yul\":803:804   */\n  0x00\n    /* \"#utility.yul\":800:801   */\n  0x00\n    /* \"#utility.yul\":793:805   */\n  revert\n    /* \"#utility.yul\":817:934   */\ntag_18:\n    /* \"#utility.yul\":926:927   */\n  0x00\n    /* \"#utility.yul\":923:924   */\n  0x00\n    /* \"#utility.yul\":916:928   */\n  revert\n    /* \"#utility.yul\":940:1042   */\ntag_19:\n    /* \"#utility.yul\":981:987   */\n  0x00\n    /* \"#utility.yul\":1032:1034   */\n  0x1f\n    /* \"#utility.yul\":1028:1035   */\n  not\n    /* \"#utility.yul\":1023:1025   */\n  0x1f\n    /* \"#utility.yul\":1016:1021   */\n  dup4\n    /* \"#utility.yul\":1012:1026   */\n  add\n    /* \"#utility.yul\":1008:1036   */\n  and\n    /* \"#utility.yul\":998:1036   */\n  swap1\n  pop\n    /* \"#utility.yul\":940:1042   */\n  swap2\n  swap1\n  pop\n  jump\t// out\n    /* \"#utility.yul\":1048:1228   */\ntag_20:\n    /* \"#utility.yul\":1096:1173   */\n  0x4e487b7100000000000000000000000000000000000000000000000000000000\n    /* \"#utility.yul\":1093:1094   */\n  0x00\n    /* \"#utility.yul\":1086:1174   */\n  mstore\n    /* \"#utility.yul\":1193:1197   */\n  0x41\n    /* \"#utility.yul\":1190:1191   */\n  0x04\n    /* \"#utility.yul\":1183:1198   */\n  mstore\n    /* \"#utility.yul\":1217:1221   */\n  0x24\n    /* \"#utility.yul\":1214:1215   */\n  0x00\n    /* \"#utility.yul\":1207:1222   */\n  revert\n    /* \"#utility.yul\":1234:1515   */\ntag_21:\n    /* \"#utility.yul\":1317:1344   */\n  tag_65\n    /* \"#utility.yul\":1339:1343   */\n  dup3\n    /* \"#utility.yul\":1317:1344   */\n  tag_19\n  jump\t// in\ntag_65:\n    /* \"#utility.yul\":1309:1315   */\n  dup2\n    /* \"#utility.yul\":1305:1345   */\n  add\n    /* \"#utility.yul\":1447:1453   */\n  dup2\n    /* \"#utility.yul\":1435:1445   */\n  dup2\n    /* \"#utility.yul\":1432:1454   */\n  lt\n    /* \"#utility.yul\":1411:1429   */\n  0xffffffffffffffff\n    /* \"#utility.yul\":1399:1409   */\n  dup3\n    /* \"#utility.yul\":1396:1430   */\n  gt\n    /* \"#utility.yul\":1393:1455   */\n  or\n    /* \"#utility.yul\":1390:1478   */\n  iszero\n  tag_66\n  jumpi\n    /* \"#utility.yul\":1458:1476   */\n  tag_67\n  tag_20\n  jump\t// in\ntag_67:\n    /* \"#utility.yul\":1390:1478   */\ntag_66:\n    /* \"#utility.yul\":1498:1508   */\n  dup1\n    /* \"#utility.yul\":1494:1496   */\n  0x40\n    /* \"#utility.yul\":1487:1509   */\n  mstore\n    /* \"#utility.yul\":1277:1515   */\n  pop\n    /* \"#utility.yul\":1234:1515   */\n  pop\n  pop\n  jump\t// out\n    /* \"#utility.yul\":1521:1650   */\ntag_22:\n    /* \"#utility.yul\":1555:1561   */\n  0x00\n    /* \"#utility.yul\":1582:1602   */\n  tag_69\n  tag_11\n  jump\t// in\ntag_69:\n    /* \"#utility.yul\":1572:1602   */\n  swap1\n  pop\n    /* \"#utility.yul\":1611:1644   */\n  tag_70\n    /* \"#utility.yul\":1639:1643   */\n  dup3\n    /* \"#utility.yul\":1631:1637   */\n  dup3\n    /* \"#utility.yul\":1611:1644   */\n  tag_21\n  jump\t// in\ntag_70:\n    /* \"#utility.yul\":1521:1650   */\n  swap2\n  swap1\n  pop\n  jump\t// out\n    /* \"#utility.yul\":1656:1964   */\ntag_23:\n    /* \"#utility.yul\":1718:1722   */\n  0x00\n    /* \"#utility.yul\":1808:1826   */\n  0xffffffffffffffff\n    /* \"#utility.yul\":1800:1806   */\n  dup3\n    /* \"#utility.yul\":1797:1827   */\n  gt\n    /* \"#utility.yul\":1794:1850   */\n  iszero\n  tag_72\n  jumpi\n    /* \"#utility.yul\":1830:1848   */\n  tag_73\n  tag_20\n  jump\t// in\ntag_73:\n    /* \"#utility.yul\":1794:1850   */\ntag_72:\n    /* \"#utility.yul\":1868:1897   */\n  tag_74\n    /* \"#utility.yul\":1890:1896   */\n  dup3\n    /* \"#utility.yul\":1868:1897   */\n  tag_19\n  jump\t// in\ntag_74:\n    /* \"#utility.yul\":1860:1897   */\n  swap1\n  pop\n    /* \"#utility.yul\":1952:1956   */\n  0x20\n    /* \"#utility.yul\":1946:1950   */\n  dup2\n    /* \"#utility.yul\":1942:1957   */\n  add\n    /* \"#utility.yul\":1934:1957   */\n  swap1\n  pop\n    /* \"#utility.yul\":1656:1964   */\n  swap2\n  swap1\n  pop\n  jump\t// out\n    /* \"#utility.yul\":1970:2109   */\ntag_24:\n    /* \"#utility.yul\":2059:2065   */\n  dup3\n    /* \"#utility.yul\":2054:2057   */\n  dup2\n    /* \"#utility.yul\":2049:2052   */\n  dup4\n    /* \"#utility.yul\":2043:2066   */\n  mcopy\n    /* \"#utility.yul\":2100:2101   */\n  0x00\n    /* \"#utility.yul\":2091:2097   */\n  dup4\n    /* \"#utility.yul\":2086:2089   */\n  dup4\n    /* \"#utility.yul\":2082:2098   */\n  add\n    /* \"#utility.yul\":2075:2102   */\n  mstore\n    /* \"#utility.yul\":1970:2109   */\n  pop\n  pop\n  pop\n  jump\t// out\n    /* \"#utility.yul\":2115:2549   */\ntag_25:\n    /* \"#utility.yul\":2204:2209   */\n  0x00\n    /* \"#utility.yul\":2229:2295   */\n  tag_77\n    /* \"#utility.yul\":2245:2294   */\n  tag_78\n    /* \"#utility.yul\":2287:2293   */\n  dup5\n    /* \"#utility.yul\":2245:2294   */\n  tag_23\n  jump\t// in\ntag_78:\n    /* \"#utility.yul\":2229:2295   */\n  tag_22\n  jump\t// in\ntag_77:\n    /* \"#utility.yul\":2220:2295   */\n  swap1\n  pop\n    /* \"#utility.yul\":2318:2324   */\n  dup3\n    /* \"#utility.yul\":2311:2316   */\n  dup2\n    /* \"#utility.yul\":2304:2325   */\n  mstore\n    /* \"#utility.yul\":2356:2360   */\n  0x20\n    /* \"#utility.yul\":2349:2354   */\n  dup2\n    /* \"#utility.yul\":2345:2361   */\n  add\n    /* \"#utility.yul\":2394:2397   */\n  dup5\n    /* \"#utility.yul\":2385:2391   */\n  dup5\n    /* \"#utility.yul\":2380:2383   */\n  dup5\n    /* \"#utility.yul\":2376:2392   */\n  add\n    /* \"#utility.yul\":2373:2398   */\n  gt\n    /* \"#utility.yul\":2370:2482   */\n  iszero\n  tag_79\n  jumpi\n    /* \"#utility.yul\":2401:2480   */\n  tag_80\n  tag_18\n  jump\t// in\ntag_80:\n    /* \"#utility.yul\":2370:2482   */\ntag_79:\n    /* \"#utility.yul\":2491:2543   */\n  tag_81\n    /* \"#utility.yul\":2536:2542   */\n  dup5\n    /* \"#utility.yul\":2531:2534   */\n  dup3\n    /* \"#utility.yul\":2526:2529   */\n  dup6\n    /* \"#utility.yul\":2491:2543   */\n  tag_24\n  jump\t// in\ntag_81:\n    /* \"#utility.yul\":2210:2549   */\n  pop\n    /* \"#utility.yul\":2115:2549   */\n  swap4\n  swap3\n  pop\n  pop\n  pop\n  jump\t// out\n    /* \"#utility.yul\":2569:2924   */\ntag_26:\n    /* \"#utility.yul\":2636:2641   */\n  0x00\n    /* \"#utility.yul\":2685:2688   */\n  dup3\n    /* \"#utility.yul\":2678:2682   */\n  0x1f\n    /* \"#utility.yul\":2670:2676   */\n  dup4\n    /* \"#utility.yul\":2666:2683   */\n  add\n    /* \"#utility.yul\":2662:2689   */\n  slt\n    /* \"#utility.yul\":2652:2774   */\n  tag_83\n  jumpi\n    /* \"#utility.yul\":2693:2772   */\n  tag_84\n  tag_17\n  jump\t// in\ntag_84:\n    /* \"#utility.yul\":2652:2774   */\ntag_83:\n    /* \"#utility.yul\":2803:2809   */\n  dup2\n    /* \"#utility.yul\":2797:2810   */\n  mload\n    /* \"#utility.yul\":2828:2918   */\n  tag_85\n    /* \"#utility.yul\":2914:2917   */\n  dup5\n    /* \"#utility.yul\":2906:2912   */\n  dup3\n    /* \"#utility.yul\":2899:2903   */\n  0x20\n    /* \"#utility.yul\":2891:2897   */\n  dup7\n    /* \"#utility.yul\":2887:2904   */\n  add\n    /* \"#utility.yul\":2828:2918   */\n  tag_25\n  jump\t// in\ntag_85:\n    /* \"#utility.yul\":2819:2918   */\n  swap2\n  pop\n    /* \"#utility.yul\":2642:2924   */\n  pop\n    /* \"#utility.yul\":2569:2924   */\n  swap3\n  swap2\n  pop\n  pop\n  jump\t// out\n    /* \"#utility.yul\":2930:3056   */\ntag_27:\n    /* \"#utility.yul\":2967:2974   */\n  0x00\n    /* \"#utility.yul\":3007:3049   */\n  0xffffffffffffffffffffffffffffffffffffffff\n    /* \"#utility.yul\":3000:3005   */\n  dup3\n    /* \"#utility.yul\":2996:3050   */\n  and\n    /* \"#utility.yul\":2985:3050   */\n  swap1\n  pop\n    /* \"#utility.yul\":2930:3056   */\n  swap2\n  swap1\n  pop\n  jump\t// out\n    /* \"#utility.yul\":3062:3166   */\ntag_28:\n    /* \"#utility.yul\":3107:3114   */\n  0x00\n    /* \"#utility.yul\":3136:3160   */\n  tag_88\n    /* \"#utility.yul\":3154:3159   */\n  dup3\n    /* \"#utility.yul\":3136:3160   */\n  tag_27\n  jump\t// in\ntag_88:\n    /* \"#utility.yul\":3125:3160   */\n  swap1\n  pop\n    /* \"#utility.yul\":3062:3166   */\n  swap2\n  swap1\n  pop\n  jump\t// out\n    /* \"#utility.yul\":3172:3310   */\ntag_29:\n    /* \"#utility.yul\":3253:3285   */\n  tag_90\n    /* \"#utility.yul\":3279:3284   */\n  dup2\n    /* \"#utility.yul\":3253:3285   */\n  tag_28\n  jump\t// in\ntag_90:\n    /* \"#utility.yul\":3246:3251   */\n  dup2\n    /* \"#utility.yul\":3243:3286   */\n  eq\n    /* \"#utility.yul\":3233:3304   */\n  tag_91\n  jumpi\n    /* \"#utility.yul\":3300:3301   */\n  0x00\n    /* \"#utility.yul\":3297:3298   */\n  0x00\n    /* \"#utility.yul\":3290:3302   */\n  revert\n    /* \"#utility.yul\":3233:3304   */\ntag_91:\n    /* \"#utility.yul\":3172:3310   */\n  pop\n  jump\t// out\n    /* \"#utility.yul\":3316:3475   */\ntag_30:\n    /* \"#utility.yul\":3381:3386   */\n  0x00\n    /* \"#utility.yul\":3412:3418   */\n  dup2\n    /* \"#utility.yul\":3406:3419   */\n  mload\n    /* \"#utility.yul\":3397:3419   */\n  swap1\n  pop\n    /* \"#utility.yul\":3428:3469   */\n  tag_93\n    /* \"#utility.yul\":3463:3468   */\n  dup2\n    /* \"#utility.yul\":3428:3469   */\n  tag_29\n  jump\t// in\ntag_93:\n    /* \"#utility.yul\":3316:3475   */\n  swap3\n  swap2\n  pop\n  pop\n  jump\t// out\n    /* \"#utility.yul\":3481:4333   */\ntag_3:\n    /* \"#utility.yul\":3587:3593   */\n  0x00\n    /* \"#utility.yul\":3595:3601   */\n  0x00\n    /* \"#utility.yul\":3603:3609   */\n  0x00\n    /* \"#utility.yul\":3652:3654   */\n  0x60\n    /* \"#utility.yul\":3640:3649   */\n  dup5\n    /* \"#utility.yul\":3631:3638   */\n  dup7\n    /* \"#utility.yul\":3627:3650   */\n  sub\n    /* \"#utility.yul\":3623:3655   */\n  slt\n    /* \"#utility.yul\":3620:3739   */\n  iszero\n  tag_95\n  jumpi\n    /* \"#utility.yul\":3658:3737   */\n  tag_96\n  tag_12\n  jump\t// in\ntag_96:\n    /* \"#utility.yul\":3620:3739   */\ntag_95:\n    /* \"#utility.yul\":3778:3779   */\n  0x00\n    /* \"#utility.yul\":3803:3867   */\n  tag_97\n    /* \"#utility.yul\":3859:3866   */\n  dup7\n    /* \"#utility.yul\":3850:3856   */\n  dup3\n    /* \"#utility.yul\":3839:3848   */\n  dup8\n    /* \"#utility.yul\":3835:3857   */\n  add\n    /* \"#utility.yul\":3803:3867   */\n  tag_16\n  jump\t// in\ntag_97:\n    /* \"#utility.yul\":3793:3867   */\n  swap4\n  pop\n    /* \"#utility.yul\":3749:3877   */\n  pop\n    /* \"#utility.yul\":3937:3939   */\n  0x20\n    /* \"#utility.yul\":3926:3935   */\n  dup5\n    /* \"#utility.yul\":3922:3940   */\n  add\n    /* \"#utility.yul\":3916:3941   */\n  mload\n    /* \"#utility.yul\":3968:3986   */\n  0xffffffffffffffff\n    /* \"#utility.yul\":3960:3966   */\n  dup2\n    /* \"#utility.yul\":3957:3987   */\n  gt\n    /* \"#utility.yul\":3954:4071   */\n  iszero\n  tag_98\n  jumpi\n    /* \"#utility.yul\":3990:4069   */\n  tag_99\n  tag_13\n  jump\t// in\ntag_99:\n    /* \"#utility.yul\":3954:4071   */\ntag_98:\n    /* \"#utility.yul\":4095:4169   */\n  tag_100\n    /* \"#utility.yul\":4161:4168   */\n  dup7\n    /* \"#utility.yul\":4152:4158   */\n  dup3\n    /* \"#utility.yul\":4141:4150   */\n  dup8\n    /* \"#utility.yul\":4137:4159   */\n  add\n    /* \"#utility.yul\":4095:4169   */\n  tag_26\n  jump\t// in\ntag_100:\n    /* \"#utility.yul\":4085:4169   */\n  swap3\n  pop\n    /* \"#utility.yul\":3887:4179   */\n  pop\n    /* \"#utility.yul\":4218:4220   */\n  0x40\n    /* \"#utility.yul\":4244:4316   */\n  tag_101\n    /* \"#utility.yul\":4308:4315   */\n  dup7\n    /* \"#utility.yul\":4299:4305   */\n  dup3\n    /* \"#utility.yul\":4288:4297   */\n  dup8\n    /* \"#utility.yul\":4284:4306   */\n  add\n    /* \"#utility.yul\":4244:4316   */\n  tag_30\n  jump\t// in\ntag_101:\n    /* \"#utility.yul\":4234:4316   */\n  swap2\n  pop\n    /* \"#utility.yul\":4189:4326   */\n  pop\n    /* \"#utility.yul\":3481:4333   */\n  swap3\n  pop\n  swap3\n  pop\n  swap3\n  jump\t// out\n    /* \"#utility.yul\":4339:4519   */\ntag_31:\n    /* \"#utility.yul\":4387:4464   */\n  0x4e487b7100000000000000000000000000000000000000000000000000000000\n    /* \"#utility.yul\":4384:4385   */\n  0x00\n    /* \"#utility.yul\":4377:4465   */\n  mstore\n    /* \"#utility.yul\":4484:4488   */\n  0x11\n    /* \"#utility.yul\":4481:4482   */\n  0x04\n    /* \"#utility.yul\":4474:4489   */\n  mstore\n    /* \"#utility.yul\":4508:4512   */\n  0x24\n    /* \"#utility.yul\":4505:4506   */\n  0x00\n    /* \"#utility.yul\":4498:4513   */\n  revert\n    /* \"#utility.yul\":4525:4716   */\ntag_7:\n    /* \"#utility.yul\":4565:4568   */\n  0x00\n    /* \"#utility.yul\":4584:4604   */\n  tag_104\n    /* \"#utility.yul\":4602:4603   */\n  dup3\n    /* \"#utility.yul\":4584:4604   */\n  tag_14\n  jump\t// in\ntag_104:\n    /* \"#utility.yul\":4579:4604   */\n  swap2\n  pop\n    /* \"#utility.yul\":4618:4638   */\n  tag_105\n    /* \"#utility.yul\":4636:4637   */\n  dup4\n    /* \"#utility.yul\":4618:4638   */\n  tag_14\n  jump\t// in\ntag_105:\n    /* \"#utility.yul\":4613:4638   */\n  swap3\n  pop\n    /* \"#utility.yul\":4661:4662   */\n  dup3\n    /* \"#utility.yul\":4658:4659   */\n  dup3\n    /* \"#utility.yul\":4654:4663   */\n  add\n    /* \"#utility.yul\":4647:4663   */\n  swap1\n  pop\n    /* \"#utility.yul\":4682:4685   */\n  dup1\n    /* \"#utility.yul\":4679:4680   */\n  dup3\n    /* \"#utility.yul\":4676:4686   */\n  gt\n    /* \"#utility.yul\":4673:4709   */\n  iszero\n  tag_106\n  jumpi\n    /* \"#utility.yul\":4689:4707   */\n  tag_107\n  tag_31\n  jump\t// in\ntag_107:\n    /* \"#utility.yul\":4673:4709   */\ntag_106:\n    /* \"#utility.yul\":4525:4716   */\n  swap3\n  swap2\n  pop\n  pop\n  jump\t// out\n    /* \"#utility.yul\":4722:4821   */\ntag_32:\n    /* \"#utility.yul\":4774:4780   */\n  0x00\n    /* \"#utility.yul\":4808:4813   */\n  dup2\n    /* \"#utility.yul\":4802:4814   */\n  mload\n    /* \"#utility.yul\":4792:4814   */\n  swap1\n  pop\n    /* \"#utility.yul\":4722:4821   */\n  swap2\n  swap1\n  pop\n  jump\t// out\n    /* \"#utility.yul\":4827:5007   */\ntag_33:\n    /* \"#utility.yul\":4875:4952   */\n  0x4e487b7100000000000000000000000000000000000000000000000000000000\n    /* \"#utility.yul\":4872:4873   */\n  0x00\n    /* \"#utility.yul\":4865:4953   */\n  mstore\n    /* \"#utility.yul\":4972:4976   */\n  0x22\n    /* \"#utility.yul\":4969:4970   */\n  0x04\n    /* \"#utility.yul\":4962:4977   */\n  mstore\n    /* \"#utility.yul\":4996:5000   */\n  0x24\n    /* \"#utility.yul\":4993:4994   */\n  0x00\n    /* \"#utility.yul\":4986:5001   */\n  revert\n    /* \"#utility.yul\":5013:5333   */\ntag_34:\n    /* \"#utility.yul\":5057:5063   */\n  0x00\n    /* \"#utility.yul\":5094:5095   */\n  0x02\n    /* \"#utility.yul\":5088:5092   */\n  dup3\n    /* \"#utility.yul\":5084:5096   */\n  div\n    /* \"#utility.yul\":5074:5096   */\n  swap1\n  pop\n    /* \"#utility.yul\":5141:5142   */\n  0x01\n    /* \"#utility.yul\":5135:5139   */\n  dup3\n    /* \"#utility.yul\":5131:5143   */\n  and\n    /* \"#utility.yul\":5162:5180   */\n  dup1\n    /* \"#utility.yul\":5152:5233   */\n  tag_111\n  jumpi\n    /* \"#utility.yul\":5218:5222   */\n  0x7f\n    /* \"#utility.yul\":5210:5216   */\n  dup3\n    /* \"#utility.yul\":5206:5223   */\n  and\n    /* \"#utility.yul\":5196:5223   */\n  swap2\n  pop\n    /* \"#utility.yul\":5152:5233   */\ntag_111:\n    /* \"#utility.yul\":5280:5282   */\n  0x20\n    /* \"#utility.yul\":5272:5278   */\n  dup3\n    /* \"#utility.yul\":5269:5283   */\n  lt\n    /* \"#utility.yul\":5249:5267   */\n  dup2\n    /* \"#utility.yul\":5246:5284   */\n  sub\n    /* \"#utility.yul\":5243:5327   */\n  tag_112\n  jumpi\n    /* \"#utility.yul\":5299:5317   */\n  tag_113\n  tag_33\n  jump\t// in\ntag_113:\n    /* \"#utility.yul\":5243:5327   */\ntag_112:\n    /* \"#utility.yul\":5064:5333   */\n  pop\n    /* \"#utility.yul\":5013:5333   */\n  swap2\n  swap1\n  pop\n  jump\t// out\n    /* \"#utility.yul\":5339:5480   */\ntag_35:\n    /* \"#utility.yul\":5388:5392   */\n  0x00\n    /* \"#utility.yul\":5411:5414   */\n  dup2\n    /* \"#utility.yul\":5403:5414   */\n  swap1\n  pop\n    /* \"#utility.yul\":5434:5437   */\n  dup2\n    /* \"#utility.yul\":5431:5432   */\n  0x00\n    /* \"#utility.yul\":5424:5438   */\n  mstore\n    /* \"#utility.yul\":5468:5472   */\n  0x20\n    /* \"#utility.yul\":5465:5466   */\n  0x00\n    /* \"#utility.yul\":5455:5473   */\n  keccak256\n    /* \"#utility.yul\":5447:5473   */\n  swap1\n  pop\n    /* \"#utility.yul\":5339:5480   */\n  swap2\n  swap1\n  pop\n  jump\t// out\n    /* \"#utility.yul\":5486:5579   */\ntag_36:\n    /* \"#utility.yul\":5523:5529   */\n  0x00\n    /* \"#utility.yul\":5570:5572   */\n  0x20\n    /* \"#utility.yul\":5565:5567   */\n  0x1f\n    /* \"#utility.yul\":5558:5563   */\n  dup4\n    /* \"#utility.yul\":5554:5568   */\n  add\n    /* \"#utility.yul\":5550:5573   */\n  div\n    /* \"#utility.yul\":5540:5573   */\n  swap1\n  pop\n    /* \"#utility.yul\":5486:5579   */\n  swap2\n  swap1\n  pop\n  jump\t// out\n    /* \"#utility.yul\":5585:5692   */\ntag_37:\n    /* \"#utility.yul\":5629:5637   */\n  0x00\n    /* \"#utility.yul\":5679:5684   */\n  dup3\n    /* \"#utility.yul\":5673:5677   */\n  dup3\n    /* \"#utility.yul\":5669:5685   */\n  shl\n    /* \"#utility.yul\":5648:5685   */\n  swap1\n  pop\n    /* \"#utility.yul\":5585:5692   */\n  swap3\n  swap2\n  pop\n  pop\n  jump\t// out\n    /* \"#utility.yul\":5698:6091   */\ntag_38:\n    /* \"#utility.yul\":5767:5773   */\n  0x00\n    /* \"#utility.yul\":5817:5818   */\n  0x08\n    /* \"#utility.yul\":5805:5815   */\n  dup4\n    /* \"#utility.yul\":5801:5819   */\n  mul\n    /* \"#utility.yul\":5840:5937   */\n  tag_118\n    /* \"#utility.yul\":5870:5936   */\n  0xffffffffffffffffffffffffffffffffffffffffffffffffffffffffffffffff\n    /* \"#utility.yul\":5859:5868   */\n  dup3\n    /* \"#utility.yul\":5840:5937   */\n  tag_37\n  jump\t// in\ntag_118:\n    /* \"#utility.yul\":5958:5997   */\n  tag_119\n    /* \"#utility.yul\":5988:5996   */\n  dup7\n    /* \"#utility.yul\":5977:5986   */\n  dup4\n    /* \"#utility.yul\":5958:5997   */\n  tag_37\n  jump\t// in\ntag_119:\n    /* \"#utility.yul\":5946:5997   */\n  swap6\n  pop\n    /* \"#utility.yul\":6030:6034   */\n  dup1\n    /* \"#utility.yul\":6026:6035   */\n  not\n    /* \"#utility.yul\":6019:6024   */\n  dup5\n    /* \"#utility.yul\":6015:6036   */\n  and\n    /* \"#utility.yul\":6006:6036   */\n  swap4\n  pop\n    /* \"#utility.yul\":6079:6083   */\n  dup1\n    /* \"#utility.yul\":6069:6077   */\n  dup7\n    /* \"#utility.yul\":6065:6084   */\n  and\n    /* \"#utility.yul\":6058:6063   */\n  dup5\n    /* \"#utility.yul\":6055:6085   */\n  or\n    /* \"#utility.yul\":6045:6085   */\n  swap3\n  pop\n    /* \"#utility.yul\":5774:6091   */\n  pop\n  pop\n    /* \"#utility.yul\":5698:6091   */\n  swap4\n  swap3\n  pop\n  pop\n  pop\n  jump\t// out\n    /* \"#utility.yul\":6097:6157   */\ntag_39:\n    /* \"#utility.yul\":6125:6128   */\n  0x00\n    /* \"#utility.yul\":6146:6151   */\n  dup2\n    /* \"#utility.yul\":6139:6151   */\n  swap1\n  pop\n    /* \"#utility.yul\":6097:6157   */\n  swap2\n  swap1\n  pop\n  jump\t// out\n    /* \"#utility.yul\":6163:6305   */\ntag_40:\n    /* \"#utility.yul\":6213:6222   */\n  0x00\n    /* \"#utility.yul\":6246:6299   */\n  tag_122\n    /* \"#utility.yul\":6264:6298   */\n  tag_123\n    /* \"#utility.yul\":6273:6297   */\n  tag_124\n    /* \"#utility.yul\":6291:6296   */\n  dup5\n    /* \"#utility.yul\":6273:6297   */\n  tag_14\n  jump\t// in\ntag_124:\n    /* \"#utility.yul\":6264:6298   */\n  tag_39\n  jump\t// in\ntag_123:\n    /* \"#utility.yul\":6246:6299   */\n  tag_14\n  jump\t// in\ntag_122:\n    /* \"#utility.yul\":6233:6299   */\n  swap1\n  pop\n    /* \"#utility.yul\":6163:6305   */\n  swap2\n  swap1\n  pop\n  jump\t// out\n    /* \"#utility.yul\":6311:6386   */\ntag_41:\n    /* \"#utility.yul\":6354:6357   */\n  0x00\n    /* \"#utility.yul\":6375:6380   */\n  dup2\n    /* \"#utility.yul\":6368:6380   */\n  swap1\n  pop\n    /* \"#utility.yul\":6311:6386   */\n  swap2\n  swap1\n  pop\n  jump\t// out\n    /* \"#utility.yul\":6392:6661   */\ntag_42:\n    /* \"#utility.yul\":6502:6541   */\n  tag_127\n    /* \"#utility.yul\":6533:6540   */\n  dup4\n    /* \"#utility.yul\":6502:6541   */\n  tag_40\n  jump\t// in\ntag_127:\n    /* \"#utility.yul\":6563:6654   */\n  tag_128\n    /* \"#utility.yul\":6612:6653   */\n  tag_129\n    /* \"#utility.yul\":6636:6652   */\n  dup3\n    /* \"#utility.yul\":6612:6653   */\n  tag_41\n  jump\t// in\ntag_129:\n    /* \"#utility.yul\":6604:6610   */\n  dup5\n    /* \"#utility.yul\":6597:6601   */\n  dup5\n    /* \"#utility.yul\":6591:6602   */\n  sload\n    /* \"#utility.yul\":6563:6654   */\n  tag_38\n  jump\t// in\ntag_128:\n    /* \"#utility.yul\":6557:6561   */\n  dup3\n    /* \"#utility.yul\":6550:6655   */\n  sstore\n    /* \"#utility.yul\":6468:6661   */\n  pop\n    /* \"#utility.yul\":6392:6661   */\n  pop\n  pop\n  pop\n  jump\t// out\n    /* \"#utility.yul\":6667:6740   */\ntag_43:\n    /* \"#utility.yul\":6712:6715   */\n  0x00\n    /* \"#utility.yul\":6733:6734   */\n  0x00\n    /* \"#utility.yul\":6726:6734   */\n  swap1\n  pop\n    /* \"#utility.yul\":6667:6740   */\n  swap1\n  jump\t// out\n    /* \"#utility.yul\":6746:6935   */\ntag_44:\n    /* \"#utility.yul\":6823:6855   */\n  tag_132\n  tag_43\n  jump\t// in\ntag_132:\n    /* \"#utility.yul\":6864:6929   */\n  tag_133\n    /* \"#utility.yul\":6922:6928   */\n  dup2\n    /* \"#utility.yul\":6914:6920   */\n  dup5\n    /* \"#utility.yul\":6908:6912   */\n  dup5\n    /* \"#utility.yul\":6864:6929   */\n  tag_42\n  jump\t// in\ntag_133:\n    /* \"#utility.yul\":6799:6935   */\n  pop\n    /* \"#utility.yul\":6746:6935   */\n  pop\n  pop\n  jump\t// out\n    /* \"#utility.yul\":6941:7127   */\ntag_45:\n    /* \"#utility.yul\":7001:7121   */\ntag_135:\n    /* \"#utility.yul\":7018:7021   */\n  dup2\n    /* \"#utility.yul\":7011:7016   */\n  dup2\n    /* \"#utility.yul\":7008:7022   */\n  lt\n    /* \"#utility.yul\":7001:7121   */\n  iszero\n  tag_137\n  jumpi\n    /* \"#utility.yul\":7072:7111   */\n  tag_138\n    /* \"#utility.yul\":7109:7110   */\n  0x00\n    /* \"#utility.yul\":7102:7107   */\n  dup3\n    /* \"#utility.yul\":7072:7111   */\n  tag_44\n  jump\t// in\ntag_138:\n    /* \"#utility.yul\":7045:7046   */\n  0x01\n    /* \"#utility.yul\":7038:7043   */\n  dup2\n    /* \"#utility.yul\":7034:7047   */\n  add\n    /* \"#utility.yul\":7025:7047   */\n  swap1\n  pop\n    /* \"#utility.yul\":7001:7121   */\n  jump(tag_135)\ntag_137:\n    /* \"#utility.yul\":6941:7127   */\n  pop\n  pop\n  jump\t// out\n    /* \"#utility.yul\":7133:7676   */\ntag_46:\n    /* \"#utility.yul\":7234:7236   */\n  0x1f\n    /* \"#utility.yul\":7229:7232   */\n  dup3\n    /* \"#utility.yul\":7226:7237   */\n  gt\n    /* \"#utility.yul\":7223:7669   */\n  iszero\n  tag_140\n  jumpi\n    /* \"#utility.yul\":7268:7306   */\n  tag_141\n    /* \"#utility.yul\":7300:7305   */\n  dup2\n    /* \"#utility.yul\":7268:7306   */\n  tag_35\n  jump\t// in\ntag_141:\n    /* \"#utility.yul\":7352:7381   */\n  tag_142\n    /* \"#utility.yul\":7370:7380   */\n  dup5\n    /* \"#utility.yul\":7352:7381   */\n  tag_36\n  jump\t// in\ntag_142:\n    /* \"#utility.yul\":7342:7350   */\n  dup2\n    /* \"#utility.yul\":7338:7382   */\n  add\n    /* \"#utility.yul\":7535:7537   */\n  0x20\n    /* \"#utility.yul\":7523:7533   */\n  dup6\n    /* \"#utility.yul\":7520:7538   */\n  lt\n    /* \"#utility.yul\":7517:7566   */\n  iszero\n  tag_143\n  jumpi\n    /* \"#utility.yul\":7556:7564   */\n  dup2\n    /* \"#utility.yul\":7541:7564   */\n  swap1\n  pop\n    /* \"#utility.yul\":7517:7566   */\ntag_143:\n    /* \"#utility.yul\":7579:7659   */\n  tag_144\n    /* \"#utility.yul\":7635:7657   */\n  tag_145\n    /* \"#utility.yul\":7653:7656   */\n  dup6\n    /* \"#utility.yul\":7635:7657   */\n  tag_36\n  jump\t// in\ntag_145:\n    /* \"#utility.yul\":7625:7633   */\n  dup4\n    /* \"#utility.yul\":7621:7658   */\n  add\n    /* \"#utility.yul\":7608:7619   */\n  dup3\n    /* \"#utility.yul\":7579:7659   */\n  tag_45\n  jump\t// in\ntag_144:\n    /* \"#utility.yul\":7238:7669   */\n  pop\n  pop\n    /* \"#utility.yul\":7223:7669   */\ntag_140:\n    /* \"#utility.yul\":7133:7676   */\n  pop\n  pop\n  pop\n  jump\t// out\n    /* \"#utility.yul\":7682:7799   */\ntag_47:\n    /* \"#utility.yul\":7736:7744   */\n  0x00\n    /* \"#utility.yul\":7786:7791   */\n  dup3\n    /* \"#utility.yul\":7780:7784   */\n  dup3\n    /* \"#utility.yul\":7776:7792   */\n  shr\n    /* \"#utility.yul\":7755:7792   */\n  swap1\n  pop\n    /* \"#utility.yul\":7682:7799   */\n  swap3\n  swap2\n  pop\n  pop\n  jump\t// out\n    /* \"#utility.yul\":7805:7974   */\ntag_48:\n    /* \"#utility.yul\":7849:7855   */\n  0x00\n    /* \"#utility.yul\":7882:7933   */\n  tag_148\n    /* \"#utility.yul\":7930:7931   */\n  0x00\n    /* \"#utility.yul\":7926:7932   */\n  not\n    /* \"#utility.yul\":7918:7923   */\n  dup5\n    /* \"#utility.yul\":7915:7916   */\n  0x08\n    /* \"#utility.yul\":7911:7924   */\n  mul\n    /* \"#utility.yul\":7882:7933   */\n  tag_47\n  jump\t// in\ntag_148:\n    /* \"#utility.yul\":7878:7934   */\n  not\n    /* \"#utility.yul\":7963:7967   */\n  dup1\n    /* \"#utility.yul\":7957:7961   */\n  dup4\n    /* \"#utility.yul\":7953:7968   */\n  and\n    /* \"#utility.yul\":7943:7968   */\n  swap2\n  pop\n    /* \"#utility.yul\":7856:7974   */\n  pop\n    /* \"#utility.yul\":7805:7974   */\n  swap3\n  swap2\n  pop\n  pop\n  jump\t// out\n    /* \"#utility.yul\":7979:8274   */\ntag_49:\n    /* \"#utility.yul\":8055:8059   */\n  0x00\n    /* \"#utility.yul\":8201:8230   */\n  tag_150\n    /* \"#utility.yul\":8226:8229   */\n  dup4\n    /* \"#utility.yul\":8220:8224   */\n  dup4\n    /* \"#utility.yul\":8201:8230   */\n  tag_48\n  jump\t// in\ntag_150:\n    /* \"#utility.yul\":8193:8230   */\n  swap2\n  pop\n    /* \"#utility.yul\":8263:8266   */\n  dup3\n    /* \"#utility.yul\":8260:8261   */\n  0x02\n    /* \"#utility.yul\":8256:8267   */\n  mul\n    /* \"#utility.yul\":8250:8254   */\n  dup3\n    /* \"#utility.yul\":8247:8268   */\n  or\n    /* \"#utility.yul\":8239:8268   */\n  swap1\n  pop\n    /* \"#utility.yul\":7979:8274   */\n  swap3\n  swap2\n  pop\n  pop\n  jump\t// out\n    /* \"#utility.yul\":8279:9674   */\ntag_9:\n    /* \"#utility.yul\":8396:8433   */\n  tag_152\n    /* \"#utility.yul\":8429:8432   */\n  dup3\n    /* \"#utility.yul\":8396:8433   */\n  tag_32\n  jump\t// in\ntag_152:\n    /* \"#utility.yul\":8498:8516   */\n  0xffffffffffffffff\n    /* \"#utility.yul\":8490:8496   */\n  dup2\n    /* \"#utility.yul\":8487:8517   */\n  gt\n    /* \"#utility.yul\":8484:8540   */\n  iszero\n  tag_153\n  jumpi\n    /* \"#utility.yul\":8520:8538   */\n  tag_154\n  tag_20\n  jump\t// in\ntag_154:\n    /* \"#utility.yul\":8484:8540   */\ntag_153:\n    /* \"#utility.yul\":8564:8602   */\n  tag_155\n    /* \"#utility.yul\":8596:8600   */\n  dup3\n    /* \"#utility.yul\":8590:8601   */\n  sload\n    /* \"#utility.yul\":8564:8602   */\n  tag_34\n  jump\t// in\ntag_155:\n    /* \"#utility.yul\":8649:8716   */\n  tag_156\n    /* \"#utility.yul\":8709:8715   */\n  dup3\n    /* \"#utility.yul\":8701:8707   */\n  dup3\n    /* \"#utility.yul\":8695:8699   */\n  dup6\n    /* \"#utility.yul\":8649:8716   */\n  tag_46\n  jump\t// in\ntag_156:\n    /* \"#utility.yul\":8743:8744   */\n  0x00\n    /* \"#utility.yul\":8767:8771   */\n  0x20\n    /* \"#utility.yul\":8754:8771   */\n  swap1\n  pop\n    /* \"#utility.yul\":8799:8801   */\n  0x1f\n    /* \"#utility.yul\":8791:8797   */\n  dup4\n    /* \"#utility.yul\":8788:8802   */\n  gt\n    /* \"#utility.yul\":8816:8817   */\n  0x01\n    /* \"#utility.yul\":8811:9429   */\n  dup2\n  eq\n  tag_158\n  jumpi\n    /* \"#utility.yul\":9473:9474   */\n  0x00\n    /* \"#utility.yul\":9490:9496   */\n  dup5\n    /* \"#utility.yul\":9487:9564   */\n  iszero\n  tag_159\n  jumpi\n    /* \"#utility.yul\":9539:9548   */\n  dup3\n    /* \"#utility.yul\":9534:9537   */\n  dup8\n    /* \"#utility.yul\":9530:9549   */\n  add\n    /* \"#utility.yul\":9524:9550   */\n  mload\n    /* \"#utility.yul\":9515:9550   */\n  swap1\n  pop\n    /* \"#utility.yul\":9487:9564   */\ntag_159:\n    /* \"#utility.yul\":9590:9657   */\n  tag_160\n    /* \"#utility.yul\":9650:9656   */\n  dup6\n    /* \"#utility.yul\":9643:9648   */\n  dup3\n    /* \"#utility.yul\":9590:9657   */\n  tag_49\n  jump\t// in\ntag_160:\n    /* \"#utility.yul\":9584:9588   */\n  dup7\n    /* \"#utility.yul\":9577:9658   */\n  sstore\n    /* \"#utility.yul\":9446:9668   */\n  pop\n    /* \"#utility.yul\":8781:9668   */\n  jump(tag_157)\n    /* \"#utility.yul\":8811:9429   */\ntag_158:\n    /* \"#utility.yul\":8863:8867   */\n  0x1f\n    /* \"#utility.yul\":8859:8868   */\n  not\n    /* \"#utility.yul\":8851:8857   */\n  dup5\n    /* \"#utility.yul\":8847:8869   */\n  and\n    /* \"#utility.yul\":8897:8934   */\n  tag_161\n    /* \"#utility.yul\":8929:8933   */\n  dup7\n    /* \"#utility.yul\":8897:8934   */\n  tag_35\n  jump\t// in\ntag_161:\n    /* \"#utility.yul\":8956:8957   */\n  0x00\n    /* \"#utility.yul\":8970:9178   */\ntag_162:\n    /* \"#utility.yul\":8984:8991   */\n  dup3\n    /* \"#utility.yul\":8981:8982   */\n  dup2\n    /* \"#utility.yul\":8978:8992   */\n  lt\n    /* \"#utility.yul\":8970:9178   */\n  iszero\n  tag_164\n  jumpi\n    /* \"#utility.yul\":9063:9072   */\n  dup5\n    /* \"#utility.yul\":9058:9061   */\n  dup10\n    /* \"#utility.yul\":9054:9073   */\n  add\n    /* \"#utility.yul\":9048:9074   */\n  mload\n    /* \"#utility.yul\":9040:9046   */\n  dup3\n    /* \"#utility.yul\":9033:9075   */\n  sstore\n    /* \"#utility.yul\":9114:9115   */\n  0x01\n    /* \"#utility.yul\":9106:9112   */\n  dup3\n    /* \"#utility.yul\":9102:9116   */\n  add\n    /* \"#utility.yul\":9092:9116   */\n  swap2\n  pop\n    /* \"#utility.yul\":9161:9163   */\n  0x20\n    /* \"#utility.yul\":9150:9159   */\n  dup6\n    /* \"#utility.yul\":9146:9164   */\n  add\n    /* \"#utility.yul\":9133:9164   */\n  swap5\n  pop\n    /* \"#utility.yul\":9007:9011   */\n  0x20\n    /* \"#utility.yul\":9004:9005   */\n  dup2\n    /* \"#utility.yul\":9000:9012   */\n  add\n    /* \"#utility.yul\":8995:9012   */\n  swap1\n  pop\n    /* \"#utility.yul\":8970:9178   */\n  jump(tag_162)\ntag_164:\n    /* \"#utility.yul\":9206:9212   */\n  dup7\n    /* \"#utility.yul\":9197:9204   */\n  dup4\n    /* \"#utility.yul\":9194:9213   */\n  lt\n    /* \"#utility.yul\":9191:9370   */\n  iszero\n  tag_165\n  jumpi\n    /* \"#utility.yul\":9264:9273   */\n  dup5\n    /* \"#utility.yul\":9259:9262   */\n  dup10\n    /* \"#utility.yul\":9255:9274   */\n  add\n    /* \"#utility.yul\":9249:9275   */\n  mload\n    /* \"#utility.yul\":9307:9355   */\n  tag_166\n    /* \"#utility.yul\":9349:9353   */\n  0x1f\n    /* \"#utility.yul\":9341:9347   */\n  dup10\n    /* \"#utility.yul\":9337:9354   */\n  and\n    /* \"#utility.yul\":9326:9335   */\n  dup3\n    /* \"#utility.yul\":9307:9355   */\n  tag_48\n  jump\t// in\ntag_166:\n    /* \"#utility.yul\":9299:9305   */\n  dup4\n    /* \"#utility.yul\":9292:9356   */\n  sstore\n    /* \"#utility.yul\":9214:9370   */\n  pop\n    /* \"#utility.yul\":9191:9370   */\ntag_165:\n    /* \"#utility.yul\":9416:9417   */\n  0x01\n    /* \"#utility.yul\":9412:9413   */\n  0x02\n    /* \"#utility.yul\":9404:9410   */\n  dup9\n    /* \"#utility.yul\":9400:9414   */\n  mul\n    /* \"#utility.yul\":9396:9418   */\n  add\n    /* \"#utility.yul\":9390:9394   */\n  dup9\n    /* \"#utility.yul\":9383:9419   */\n  sstore\n    /* \"#utility.yul\":8818:9429   */\n  pop\n  pop\n  pop\n    /* \"#utility.yul\":8781:9668   */\ntag_157:\n  pop\n    /* \"#utility.yul\":8371:9674   */\n  pop\n  pop\n  pop\n    /* \"#utility.yul\":8279:9674   */\n  pop\n  pop\n  jump\t// out\n    /* \"contracts/Auction.sol\":61:2616  contract Auction{... */\ntag_10:\n  dataSize(sub_0)\n  dup1\n  dataOffset(sub_0)\n  0x00\n  codecopy\n  0x00\n  return\nstop\n\nsub_0: assembly {\n        /* \"contracts/Auction.sol\":61:2616  contract Auction{... */\n      mstore(0x40, 0x80)\n      jumpi(tag_1, lt(calldatasize, 0x04))\n      shr(0xe0, calldataload(0x00))\n      dup1\n      0x4b449cba\n      gt\n      tag_11\n      jumpi\n      dup1\n      0x4b449cba\n      eq\n      tag_6\n      jumpi\n      dup1\n      0x4d2102d4\n      eq\n      tag_7\n      jumpi\n      dup1\n      0x91f90157\n      eq\n      tag_8\n      jumpi\n      dup1\n      0xd57bde79\n      eq\n      tag_9\n      jumpi\n      dup1\n      0xdd56653c\n      eq\n      tag_10\n      jumpi\n      jump(tag_1)\n    tag_11:\n      dup1\n      0x1998aeef\n      eq\n      tag_2\n      jumpi\n      dup1\n      0x2a24f46c\n      eq\n      tag_3\n      jumpi\n      dup1\n      0x38af3eed\n      eq\n      tag_4\n      jumpi\n      dup1\n      0x3ccfd60b\n      eq\n      tag_5\n      jumpi\n    tag_1:\n      revert(0x00, 0x00)\n        /* \"contracts/Auction.sol\":893:1383  function bid() external payable {... */\n    tag_2:\n      tag_12\n      tag_13\n      jump\t// in\n    tag_12:\n      stop\n        /* \"contracts/Auction.sol\":1882:2363  function auctionEnd() external {... */\n    tag_3:\n      callvalue\n      dup1\n      iszero\n      tag_14\n      jumpi\n      revert(0x00, 0x00)\n    tag_14:\n      pop\n      tag_15\n      tag_16\n      jump\t// in\n    tag_15:\n      stop\n        /* \"contracts/Auction.sol\":86:120  address payable public beneficiary */\n    tag_4:\n      callvalue\n      dup1\n      iszero\n      tag_17\n      jumpi\n      revert(0x00, 0x00)\n    tag_17:\n      pop\n      tag_18\n      tag_19\n      jump\t// in\n    tag_18:\n      mload(0x40)\n      tag_20\n      swap2\n      swap1\n      tag_21\n      jump\t// in\n    tag_20:\n      mload(0x40)\n      dup1\n      swap2\n      sub\n      swap1\n      return\n        /* \"contracts/Auction.sol\":1391:1874  function withdraw() external returns (bool){... */\n    tag_5:\n      callvalue\n      dup1\n      iszero\n      tag_22\n      jumpi\n      revert(0x00, 0x00)\n    tag_22:\n      pop\n      tag_23\n      tag_24\n      jump\t// in\n    tag_23:\n      mload(0x40)\n      tag_25\n      swap2\n      swap1\n      tag_26\n      jump\t// in\n    tag_25:\n      mload(0x40)\n      dup1\n      swap2\n      sub\n      swap1\n      return\n        /* \"contracts/Auction.sol\":127:153  uint public auctionEndTime */\n    tag_6:\n      callvalue\n      dup1\n      iszero\n      tag_27\n      jumpi\n      revert(0x00, 0x00)\n    tag_27:\n      pop\n      tag_28\n      tag_29\n      jump\t// in\n    tag_28:\n      mload(0x40)\n      tag_30\n      swap2\n      swap1\n      tag_31\n      jump\t// in\n    tag_30:\n      mload(0x40)\n      dup1\n      swap2\n      sub\n      swap1\n      return\n        /* \"contracts/Auction.sol\":2375:2609  function getSecretMessage() external view returns(string memory){... */\n    tag_7:\n      callvalue\n      dup1\n      iszero\n      tag_32\n      jumpi\n      revert(0x00, 0x00)\n    tag_32:\n      pop\n      tag_33\n      tag_34\n      jump\t// in\n    tag_33:\n      mload(0x40)\n      tag_35\n      swap2\n      swap1\n      tag_36\n      jump\t// in\n    tag_35:\n      mload(0x40)\n      dup1\n      swap2\n      sub\n      swap1\n      return\n        /* \"contracts/Auction.sol\":197:225  address public highestBidder */\n    tag_8:\n      callvalue\n      dup1\n      iszero\n      tag_37\n      jumpi\n      revert(0x00, 0x00)\n    tag_37:\n      pop\n      tag_38\n      tag_39\n      jump\t// in\n    tag_38:\n      mload(0x40)\n      tag_40\n      swap2\n      swap1\n      tag_41\n      jump\t// in\n    tag_40:\n      mload(0x40)\n      dup1\n      swap2\n      sub\n      swap1\n      return\n        /* \"contracts/Auction.sol\":232:254  uint public highestBid */\n    tag_9:\n      callvalue\n      dup1\n      iszero\n      tag_42\n      jumpi\n      revert(0x00, 0x00)\n    tag_42:\n      pop\n      tag_43\n      tag_44\n      jump\t// in\n    tag_43:\n      mload(0x40)\n      tag_45\n      swap2\n      swap1\n      tag_31\n      jump\t// in\n    tag_45:\n      mload(0x40)\n      dup1\n      swap2\n      sub\n      swap1\n      return\n        /* \"contracts/Auction.sol\":261:283  uint public difference */\n    tag_10:\n      callvalue\n      dup1\n      iszero\n      tag_46\n      jumpi\n      revert(0x00, 0x00)\n    tag_46:\n      pop\n      tag_47\n      tag_48\n      jump\t// in\n    tag_47:\n      mload(0x40)\n      tag_49\n      swap2\n      swap1\n      tag_31\n      jump\t// in\n    tag_49:\n      mload(0x40)\n      dup1\n      swap2\n      sub\n      swap1\n      return\n        /* \"contracts/Auction.sol\":893:1383  function bid() external payable {... */\n    tag_13:\n        /* \"contracts/Auction.sol\":941:946  ended */\n      0x07\n      0x00\n      swap1\n      sload\n      swap1\n      0x0100\n      exp\n      swap1\n      div\n      0xff\n      and\n        /* \"contracts/Auction.sol\":938:1002  if(ended){... */\n      iszero\n      tag_51\n      jumpi\n        /* \"contracts/Auction.sol\":969:990  AuctionAlreadyEnded() */\n      mload(0x40)\n      0xd02e774d00000000000000000000000000000000000000000000000000000000\n      dup2\n      mstore\n      0x04\n      add\n      mload(0x40)\n      dup1\n      swap2\n      sub\n      swap1\n      revert\n        /* \"contracts/Auction.sol\":938:1002  if(ended){... */\n    tag_51:\n        /* \"contracts/Auction.sol\":1026:1036  highestBid */\n      sload(0x04)\n        /* \"contracts/Auction.sol\":1015:1024  msg.value */\n      callvalue\n        /* \"contracts/Auction.sol\":1015:1036  msg.value<=highestBid */\n      gt\n        /* \"contracts/Auction.sol\":1012:1086  if(msg.value<=highestBid)... */\n      tag_52\n      jumpi\n        /* \"contracts/Auction.sol\":1075:1085  highestBid */\n      sload(0x04)\n        /* \"contracts/Auction.sol\":1058:1086  BidNotHighEnough(highestBid) */\n      mload(0x40)\n      0x4e12c1bb00000000000000000000000000000000000000000000000000000000\n      dup2\n      mstore\n      0x04\n      add\n      tag_53\n      swap2\n      swap1\n      tag_31\n      jump\t// in\n    tag_53:\n      mload(0x40)\n      dup1\n      swap2\n      sub\n      swap1\n      revert\n        /* \"contracts/Auction.sol\":1012:1086  if(msg.value<=highestBid)... */\n    tag_52:\n        /* \"contracts/Auction.sol\":1112:1113  0 */\n      0x00\n        /* \"contracts/Auction.sol\":1100:1110  highestBid */\n      sload(0x04)\n        /* \"contracts/Auction.sol\":1100:1113  highestBid!=0 */\n      eq\n        /* \"contracts/Auction.sol\":1097:1182  if(highestBid!=0){... */\n      tag_54\n      jumpi\n        /* \"contracts/Auction.sol\":1160:1170  highestBid */\n      sload(0x04)\n        /* \"contracts/Auction.sol\":1129:1143  pendingReturns */\n      0x06\n        /* \"contracts/Auction.sol\":1129:1158  pendingReturns[highestBidder] */\n      0x00\n        /* \"contracts/Auction.sol\":1144:1157  highestBidder */\n      0x03\n      0x00\n      swap1\n      sload\n      swap1\n      0x0100\n      exp\n      swap1\n      div\n      0xffffffffffffffffffffffffffffffffffffffff\n      and\n        /* \"contracts/Auction.sol\":1129:1158  pendingReturns[highestBidder] */\n      0xffffffffffffffffffffffffffffffffffffffff\n      and\n      0xffffffffffffffffffffffffffffffffffffffff\n      and\n      dup2\n      mstore\n      0x20\n      add\n      swap1\n      dup2\n      mstore\n      0x20\n      add\n      0x00\n      keccak256\n      0x00\n        /* \"contracts/Auction.sol\":1129:1170  pendingReturns[highestBidder]+=highestBid */\n      dup3\n      dup3\n      sload\n      tag_55\n      swap2\n      swap1\n      tag_56\n      jump\t// in\n    tag_55:\n      swap3\n      pop\n      pop\n      dup2\n      swap1\n      sstore\n      pop\n        /* \"contracts/Auction.sol\":1097:1182  if(highestBid!=0){... */\n    tag_54:\n        /* \"contracts/Auction.sol\":1225:1235  highestBid */\n      sload(0x04)\n        /* \"contracts/Auction.sol\":1213:1222  msg.value */\n      callvalue\n        /* \"contracts/Auction.sol\":1213:1235  msg.value - highestBid */\n      tag_57\n      swap2\n      swap1\n      tag_58\n      jump\t// in\n    tag_57:\n        /* \"contracts/Auction.sol\":1200:1210  difference */\n      0x05\n        /* \"contracts/Auction.sol\":1200:1235  difference = msg.value - highestBid */\n      dup2\n      swap1\n      sstore\n      pop\n        /* \"contracts/Auction.sol\":1257:1266  msg.value */\n      callvalue\n        /* \"contracts/Auction.sol\":1246:1256  highestBid */\n      0x04\n        /* \"contracts/Auction.sol\":1246:1266  highestBid=msg.value */\n      dup2\n      swap1\n      sstore\n      pop\n        /* \"contracts/Auction.sol\":1291:1301  msg.sender */\n      caller\n        /* \"contracts/Auction.sol\":1277:1290  highestBidder */\n      0x03\n      0x00\n        /* \"contracts/Auction.sol\":1277:1301  highestBidder=msg.sender */\n      0x0100\n      exp\n      dup2\n      sload\n      dup2\n      0xffffffffffffffffffffffffffffffffffffffff\n      mul\n      not\n      and\n      swap1\n      dup4\n      0xffffffffffffffffffffffffffffffffffffffff\n      and\n      mul\n      or\n      swap1\n      sstore\n      pop\n        /* \"contracts/Auction.sol\":1317:1369  HighestBidIncreased(msg.sender,msg.value,difference) */\n      0xdafc4a123c6bb3b49dd38a0cba299808581a0126a37248a5f1102d5e5fa06337\n        /* \"contracts/Auction.sol\":1337:1347  msg.sender */\n      caller\n        /* \"contracts/Auction.sol\":1348:1357  msg.value */\n      callvalue\n        /* \"contracts/Auction.sol\":1358:1368  difference */\n      sload(0x05)\n        /* \"contracts/Auction.sol\":1317:1369  HighestBidIncreased(msg.sender,msg.value,difference) */\n      mload(0x40)\n      tag_59\n      swap4\n      swap3\n      swap2\n      swap1\n      tag_60\n      jump\t// in\n    tag_59:\n      mload(0x40)\n      dup1\n      swap2\n      sub\n      swap1\n      log1\n        /* \"contracts/Auction.sol\":893:1383  function bid() external payable {... */\n      jump\t// out\n        /* \"contracts/Auction.sol\":1882:2363  function auctionEnd() external {... */\n    tag_16:\n        /* \"contracts/Auction.sol\":1961:1975  auctionEndTime */\n      sload(0x01)\n        /* \"contracts/Auction.sol\":1945:1960  block.timestamp */\n      timestamp\n        /* \"contracts/Auction.sol\":1945:1975  block.timestamp<auctionEndTime */\n      lt\n        /* \"contracts/Auction.sol\":1942:2010  if(block.timestamp<auctionEndTime)... */\n      iszero\n      tag_62\n      jumpi\n        /* \"contracts/Auction.sol\":1997:2010  NotYetEnded() */\n      mload(0x40)\n      0x72d1250d00000000000000000000000000000000000000000000000000000000\n      dup2\n      mstore\n      0x04\n      add\n      mload(0x40)\n      dup1\n      swap2\n      sub\n      swap1\n      revert\n        /* \"contracts/Auction.sol\":1942:2010  if(block.timestamp<auctionEndTime)... */\n    tag_62:\n        /* \"contracts/Auction.sol\":2024:2029  ended */\n      0x07\n      0x00\n      swap1\n      sload\n      swap1\n      0x0100\n      exp\n      swap1\n      div\n      0xff\n      and\n        /* \"contracts/Auction.sol\":2021:2072  if(ended)... */\n      iszero\n      tag_63\n      jumpi\n        /* \"contracts/Auction.sol\":2051:2072  AuctionAlreadyEnded() */\n      mload(0x40)\n      0xd02e774d00000000000000000000000000000000000000000000000000000000\n      dup2\n      mstore\n      0x04\n      add\n      mload(0x40)\n      dup1\n      swap2\n      sub\n      swap1\n      revert\n        /* \"contracts/Auction.sol\":2021:2072  if(ended)... */\n    tag_63:\n        /* \"contracts/Auction.sol\":2120:2124  true */\n      0x01\n        /* \"contracts/Auction.sol\":2112:2117  ended */\n      0x07\n      0x00\n        /* \"contracts/Auction.sol\":2112:2124  ended = true */\n      0x0100\n      exp\n      dup2\n      sload\n      dup2\n      0xff\n      mul\n      not\n      and\n      swap1\n      dup4\n      iszero\n      iszero\n      mul\n      or\n      swap1\n      sstore\n      pop\n        /* \"contracts/Auction.sol\":2140:2181  AuctionHasEnded(highestBid,highestBidder) */\n      0x18a34742fba234dafde701c2a3845a1f1efb03f42641f954590dd9bab007eaf3\n        /* \"contracts/Auction.sol\":2156:2166  highestBid */\n      sload(0x04)\n        /* \"contracts/Auction.sol\":2167:2180  highestBidder */\n      0x03\n      0x00\n      swap1\n      sload\n      swap1\n      0x0100\n      exp\n      swap1\n      div\n      0xffffffffffffffffffffffffffffffffffffffff\n      and\n        /* \"contracts/Auction.sol\":2140:2181  AuctionHasEnded(highestBid,highestBidder) */\n      mload(0x40)\n      tag_64\n      swap3\n      swap2\n      swap1\n      tag_65\n      jump\t// in\n    tag_64:\n      mload(0x40)\n      dup1\n      swap2\n      sub\n      swap1\n      log1\n        /* \"contracts/Auction.sol\":2239:2251  bool success */\n      0x00\n        /* \"contracts/Auction.sol\":2255:2266  beneficiary */\n      0x00\n      0x00\n      swap1\n      sload\n      swap1\n      0x0100\n      exp\n      swap1\n      div\n      0xffffffffffffffffffffffffffffffffffffffff\n      and\n        /* \"contracts/Auction.sol\":2255:2271  beneficiary.call */\n      0xffffffffffffffffffffffffffffffffffffffff\n      and\n        /* \"contracts/Auction.sol\":2279:2289  highestBid */\n      sload(0x04)\n        /* \"contracts/Auction.sol\":2255:2294  beneficiary.call{value: highestBid}(\"\") */\n      mload(0x40)\n      tag_66\n      swap1\n      tag_67\n      jump\t// in\n    tag_66:\n      0x00\n      mload(0x40)\n      dup1\n      dup4\n      sub\n      dup2\n      dup6\n      dup8\n      gas\n      call\n      swap3\n      pop\n      pop\n      pop\n      returndatasize\n      dup1\n      0x00\n      dup2\n      eq\n      tag_70\n      jumpi\n      mload(0x40)\n      swap2\n      pop\n      and(add(returndatasize, 0x3f), not(0x1f))\n      dup3\n      add\n      0x40\n      mstore\n      returndatasize\n      dup3\n      mstore\n      returndatasize\n      0x00\n      0x20\n      dup5\n      add\n      returndatacopy\n      jump(tag_69)\n    tag_70:\n      0x60\n      swap2\n      pop\n    tag_69:\n      pop\n        /* \"contracts/Auction.sol\":2238:2294  (bool success, )=beneficiary.call{value: highestBid}(\"\") */\n      pop\n      swap1\n      pop\n        /* \"contracts/Auction.sol\":2313:2320  success */\n      dup1\n        /* \"contracts/Auction.sol\":2305:2353  require(success, \"Sending money didn't succeed\") */\n      tag_71\n      jumpi\n      mload(0x40)\n      0x08c379a000000000000000000000000000000000000000000000000000000000\n      dup2\n      mstore\n      0x04\n      add\n      tag_72\n      swap1\n      tag_73\n      jump\t// in\n    tag_72:\n      mload(0x40)\n      dup1\n      swap2\n      sub\n      swap1\n      revert\n    tag_71:\n        /* \"contracts/Auction.sol\":1913:2363  {... */\n      pop\n        /* \"contracts/Auction.sol\":1882:2363  function auctionEnd() external {... */\n      jump\t// out\n        /* \"contracts/Auction.sol\":86:120  address payable public beneficiary */\n    tag_19:\n      0x00\n      0x00\n      swap1\n      sload\n      swap1\n      0x0100\n      exp\n      swap1\n      div\n      0xffffffffffffffffffffffffffffffffffffffff\n      and\n      dup2\n      jump\t// out\n        /* \"contracts/Auction.sol\":1391:1874  function withdraw() external returns (bool){... */\n    tag_24:\n        /* \"contracts/Auction.sol\":1429:1433  bool */\n      0x00\n        /* \"contracts/Auction.sol\":1445:1456  uint amount */\n      0x00\n        /* \"contracts/Auction.sol\":1459:1473  pendingReturns */\n      0x06\n        /* \"contracts/Auction.sol\":1459:1485  pendingReturns[msg.sender] */\n      0x00\n        /* \"contracts/Auction.sol\":1474:1484  msg.sender */\n      caller\n        /* \"contracts/Auction.sol\":1459:1485  pendingReturns[msg.sender] */\n      0xffffffffffffffffffffffffffffffffffffffff\n      and\n      0xffffffffffffffffffffffffffffffffffffffff\n      and\n      dup2\n      mstore\n      0x20\n      add\n      swap1\n      dup2\n      mstore\n      0x20\n      add\n      0x00\n      keccak256\n      sload\n        /* \"contracts/Auction.sol\":1445:1485  uint amount = pendingReturns[msg.sender] */\n      swap1\n      pop\n        /* \"contracts/Auction.sol\":1504:1509  ended */\n      0x07\n      0x00\n      swap1\n      sload\n      swap1\n      0x0100\n      exp\n      swap1\n      div\n      0xff\n      and\n        /* \"contracts/Auction.sol\":1496:1538  require(ended,\"Auction has not yet ended\") */\n      tag_75\n      jumpi\n      mload(0x40)\n      0x08c379a000000000000000000000000000000000000000000000000000000000\n      dup2\n      mstore\n      0x04\n      add\n      tag_76\n      swap1\n      tag_77\n      jump\t// in\n    tag_76:\n      mload(0x40)\n      dup1\n      swap2\n      sub\n      swap1\n      revert\n    tag_75:\n        /* \"contracts/Auction.sol\":1564:1565  0 */\n      0x00\n        /* \"contracts/Auction.sol\":1557:1563  amount */\n      dup2\n        /* \"contracts/Auction.sol\":1557:1565  amount>0 */\n      gt\n        /* \"contracts/Auction.sol\":1549:1566  require(amount>0) */\n      tag_78\n      jumpi\n      revert(0x00, 0x00)\n    tag_78:\n        /* \"contracts/Auction.sol\":1587:1588  0 */\n      0x00\n        /* \"contracts/Auction.sol\":1580:1586  amount */\n      dup2\n        /* \"contracts/Auction.sol\":1580:1588  amount>0 */\n      gt\n        /* \"contracts/Auction.sol\":1577:1845  if(amount>0){... */\n      iszero\n      tag_79\n      jumpi\n        /* \"contracts/Auction.sol\":1631:1632  0 */\n      0x00\n        /* \"contracts/Auction.sol\":1604:1618  pendingReturns */\n      0x06\n        /* \"contracts/Auction.sol\":1604:1630  pendingReturns[msg.sender] */\n      0x00\n        /* \"contracts/Auction.sol\":1619:1629  msg.sender */\n      caller\n        /* \"contracts/Auction.sol\":1604:1630  pendingReturns[msg.sender] */\n      0xffffffffffffffffffffffffffffffffffffffff\n      and\n      0xffffffffffffffffffffffffffffffffffffffff\n      and\n      dup2\n      mstore\n      0x20\n      add\n      swap1\n      dup2\n      mstore\n      0x20\n      add\n      0x00\n      keccak256\n        /* \"contracts/Auction.sol\":1604:1632  pendingReturns[msg.sender]=0 */\n      dup2\n      swap1\n      sstore\n      pop\n        /* \"contracts/Auction.sol\":1648:1660  bool success */\n      0x00\n        /* \"contracts/Auction.sol\":1673:1683  msg.sender */\n      caller\n        /* \"contracts/Auction.sol\":1665:1689  payable(msg.sender).call */\n      0xffffffffffffffffffffffffffffffffffffffff\n      and\n        /* \"contracts/Auction.sol\":1697:1703  amount */\n      dup3\n        /* \"contracts/Auction.sol\":1665:1708  payable(msg.sender).call{value: amount}(\"\") */\n      mload(0x40)\n      tag_80\n      swap1\n      tag_67\n      jump\t// in\n    tag_80:\n      0x00\n      mload(0x40)\n      dup1\n      dup4\n      sub\n      dup2\n      dup6\n      dup8\n      gas\n      call\n      swap3\n      pop\n      pop\n      pop\n      returndatasize\n      dup1\n      0x00\n      dup2\n      eq\n      tag_83\n      jumpi\n      mload(0x40)\n      swap2\n      pop\n      and(add(returndatasize, 0x3f), not(0x1f))\n      dup3\n      add\n      0x40\n      mstore\n      returndatasize\n      dup3\n      mstore\n      returndatasize\n      0x00\n      0x20\n      dup5\n      add\n      returndatacopy\n      jump(tag_82)\n    tag_83:\n      0x60\n      swap2\n      pop\n    tag_82:\n      pop\n        /* \"contracts/Auction.sol\":1647:1708  (bool success,) = payable(msg.sender).call{value: amount}(\"\") */\n      pop\n      swap1\n      pop\n        /* \"contracts/Auction.sol\":1727:1734  success */\n      dup1\n        /* \"contracts/Auction.sol\":1723:1834  if(!success){... */\n      tag_84\n      jumpi\n        /* \"contracts/Auction.sol\":1781:1787  amount */\n      dup2\n        /* \"contracts/Auction.sol\":1754:1768  pendingReturns */\n      0x06\n        /* \"contracts/Auction.sol\":1754:1780  pendingReturns[msg.sender] */\n      0x00\n        /* \"contracts/Auction.sol\":1769:1779  msg.sender */\n      caller\n        /* \"contracts/Auction.sol\":1754:1780  pendingReturns[msg.sender] */\n      0xffffffffffffffffffffffffffffffffffffffff\n      and\n      0xffffffffffffffffffffffffffffffffffffffff\n      and\n      dup2\n      mstore\n      0x20\n      add\n      swap1\n      dup2\n      mstore\n      0x20\n      add\n      0x00\n      keccak256\n        /* \"contracts/Auction.sol\":1754:1787  pendingReturns[msg.sender]=amount */\n      dup2\n      swap1\n      sstore\n      pop\n        /* \"contracts/Auction.sol\":1813:1818  false */\n      0x00\n        /* \"contracts/Auction.sol\":1806:1818  return false */\n      swap3\n      pop\n      pop\n      pop\n      jump(tag_74)\n        /* \"contracts/Auction.sol\":1723:1834  if(!success){... */\n    tag_84:\n        /* \"contracts/Auction.sol\":1589:1845  {... */\n      pop\n        /* \"contracts/Auction.sol\":1577:1845  if(amount>0){... */\n    tag_79:\n        /* \"contracts/Auction.sol\":1862:1866  true */\n      0x01\n        /* \"contracts/Auction.sol\":1855:1866  return true */\n      swap2\n      pop\n      pop\n        /* \"contracts/Auction.sol\":1391:1874  function withdraw() external returns (bool){... */\n    tag_74:\n      swap1\n      jump\t// out\n        /* \"contracts/Auction.sol\":127:153  uint public auctionEndTime */\n    tag_29:\n      sload(0x01)\n      dup2\n      jump\t// out\n        /* \"contracts/Auction.sol\":2375:2609  function getSecretMessage() external view returns(string memory){... */\n    tag_34:\n        /* \"contracts/Auction.sol\":2425:2438  string memory */\n      0x60\n        /* \"contracts/Auction.sol\":2458:2463  ended */\n      0x07\n      0x00\n      swap1\n      sload\n      swap1\n      0x0100\n      exp\n      swap1\n      div\n      0xff\n      and\n        /* \"contracts/Auction.sol\":2450:2492  require(ended,\"Auction has not yet ended\") */\n      tag_86\n      jumpi\n      mload(0x40)\n      0x08c379a000000000000000000000000000000000000000000000000000000000\n      dup2\n      mstore\n      0x04\n      add\n      tag_87\n      swap1\n      tag_77\n      jump\t// in\n    tag_87:\n      mload(0x40)\n      dup1\n      swap2\n      sub\n      swap1\n      revert\n    tag_86:\n        /* \"contracts/Auction.sol\":2526:2536  msg.sender */\n      caller\n        /* \"contracts/Auction.sol\":2511:2536  highestBidder==msg.sender */\n      0xffffffffffffffffffffffffffffffffffffffff\n      and\n        /* \"contracts/Auction.sol\":2511:2524  highestBidder */\n      0x03\n      0x00\n      swap1\n      sload\n      swap1\n      0x0100\n      exp\n      swap1\n      div\n      0xffffffffffffffffffffffffffffffffffffffff\n      and\n        /* \"contracts/Auction.sol\":2511:2536  highestBidder==msg.sender */\n      0xffffffffffffffffffffffffffffffffffffffff\n      and\n      eq\n        /* \"contracts/Auction.sol\":2503:2558  require(highestBidder==msg.sender,\"Not highest bidder\") */\n      tag_88\n      jumpi\n      mload(0x40)\n      0x08c379a000000000000000000000000000000000000000000000000000000000\n      dup2\n      mstore\n      0x04\n      add\n      tag_89\n      swap1\n      tag_90\n      jump\t// in\n    tag_89:\n      mload(0x40)\n      dup1\n      swap2\n      sub\n      swap1\n      revert\n    tag_88:\n        /* \"contracts/Auction.sol\":2578:2591  secretMessage */\n      0x02\n        /* \"contracts/Auction.sol\":2571:2591  return secretMessage */\n      dup1\n      sload\n      tag_91\n      swap1\n      tag_92\n      jump\t// in\n    tag_91:\n      dup1\n      0x1f\n      add\n      0x20\n      dup1\n      swap2\n      div\n      mul\n      0x20\n      add\n      mload(0x40)\n      swap1\n      dup2\n      add\n      0x40\n      mstore\n      dup1\n      swap3\n      swap2\n      swap1\n      dup2\n      dup2\n      mstore\n      0x20\n      add\n      dup3\n      dup1\n      sload\n      tag_93\n      swap1\n      tag_92\n      jump\t// in\n    tag_93:\n      dup1\n      iszero\n      tag_94\n      jumpi\n      dup1\n      0x1f\n      lt\n      tag_95\n      jumpi\n      0x0100\n      dup1\n      dup4\n      sload\n      div\n      mul\n      dup4\n      mstore\n      swap2\n      0x20\n      add\n      swap2\n      jump(tag_94)\n    tag_95:\n      dup3\n      add\n      swap2\n      swap1\n      0x00\n      mstore\n      keccak256(0x00, 0x20)\n      swap1\n    tag_96:\n      dup2\n      sload\n      dup2\n      mstore\n      swap1\n      0x01\n      add\n      swap1\n      0x20\n      add\n      dup1\n      dup4\n      gt\n      tag_96\n      jumpi\n      dup3\n      swap1\n      sub\n      0x1f\n      and\n      dup3\n      add\n      swap2\n    tag_94:\n      pop\n      pop\n      pop\n      pop\n      pop\n      swap1\n      pop\n        /* \"contracts/Auction.sol\":2375:2609  function getSecretMessage() external view returns(string memory){... */\n      swap1\n      jump\t// out\n        /* \"contracts/Auction.sol\":197:225  address public highestBidder */\n    tag_39:\n      0x03\n      0x00\n      swap1\n      sload\n      swap1\n      0x0100\n      exp\n      swap1\n      div\n      0xffffffffffffffffffffffffffffffffffffffff\n      and\n      dup2\n      jump\t// out\n        /* \"contracts/Auction.sol\":232:254  uint public highestBid */\n    tag_44:\n      sload(0x04)\n      dup2\n      jump\t// out\n        /* \"contracts/Auction.sol\":261:283  uint public difference */\n    tag_48:\n      sload(0x05)\n      dup2\n      jump\t// out\n        /* \"#utility.yul\":7:133   */\n    tag_97:\n        /* \"#utility.yul\":44:51   */\n      0x00\n        /* \"#utility.yul\":84:126   */\n      0xffffffffffffffffffffffffffffffffffffffff\n        /* \"#utility.yul\":77:82   */\n      dup3\n        /* \"#utility.yul\":73:127   */\n      and\n        /* \"#utility.yul\":62:127   */\n      swap1\n      pop\n        /* \"#utility.yul\":7:133   */\n      swap2\n      swap1\n      pop\n      jump\t// out\n        /* \"#utility.yul\":139:243   */\n    tag_98:\n        /* \"#utility.yul\":184:191   */\n      0x00\n        /* \"#utility.yul\":213:237   */\n      tag_125\n        /* \"#utility.yul\":231:236   */\n      dup3\n        /* \"#utility.yul\":213:237   */\n      tag_97\n      jump\t// in\n    tag_125:\n        /* \"#utility.yul\":202:237   */\n      swap1\n      pop\n        /* \"#utility.yul\":139:243   */\n      swap2\n      swap1\n      pop\n      jump\t// out\n        /* \"#utility.yul\":249:391   */\n    tag_99:\n        /* \"#utility.yul\":352:384   */\n      tag_127\n        /* \"#utility.yul\":378:383   */\n      dup2\n        /* \"#utility.yul\":352:384   */\n      tag_98\n      jump\t// in\n    tag_127:\n        /* \"#utility.yul\":347:350   */\n      dup3\n        /* \"#utility.yul\":340:385   */\n      mstore\n        /* \"#utility.yul\":249:391   */\n      pop\n      pop\n      jump\t// out\n        /* \"#utility.yul\":397:651   */\n    tag_21:\n        /* \"#utility.yul\":506:510   */\n      0x00\n        /* \"#utility.yul\":544:546   */\n      0x20\n        /* \"#utility.yul\":533:542   */\n      dup3\n        /* \"#utility.yul\":529:547   */\n      add\n        /* \"#utility.yul\":521:547   */\n      swap1\n      pop\n        /* \"#utility.yul\":557:644   */\n      tag_129\n        /* \"#utility.yul\":641:642   */\n      0x00\n        /* \"#utility.yul\":630:639   */\n      dup4\n        /* \"#utility.yul\":626:643   */\n      add\n        /* \"#utility.yul\":617:623   */\n      dup5\n        /* \"#utility.yul\":557:644   */\n      tag_99\n      jump\t// in\n    tag_129:\n        /* \"#utility.yul\":397:651   */\n      swap3\n      swap2\n      pop\n      pop\n      jump\t// out\n        /* \"#utility.yul\":657:747   */\n    tag_100:\n        /* \"#utility.yul\":691:698   */\n      0x00\n        /* \"#utility.yul\":734:739   */\n      dup2\n        /* \"#utility.yul\":727:740   */\n      iszero\n        /* \"#utility.yul\":720:741   */\n      iszero\n        /* \"#utility.yul\":709:741   */\n      swap1\n      pop\n        /* \"#utility.yul\":657:747   */\n      swap2\n      swap1\n      pop\n      jump\t// out\n        /* \"#utility.yul\":753:862   */\n    tag_101:\n        /* \"#utility.yul\":834:855   */\n      tag_132\n        /* \"#utility.yul\":849:854   */\n      dup2\n        /* \"#utility.yul\":834:855   */\n      tag_100\n      jump\t// in\n    tag_132:\n        /* \"#utility.yul\":829:832   */\n      dup3\n        /* \"#utility.yul\":822:856   */\n      mstore\n        /* \"#utility.yul\":753:862   */\n      pop\n      pop\n      jump\t// out\n        /* \"#utility.yul\":868:1078   */\n    tag_26:\n        /* \"#utility.yul\":955:959   */\n      0x00\n        /* \"#utility.yul\":993:995   */\n      0x20\n        /* \"#utility.yul\":982:991   */\n      dup3\n        /* \"#utility.yul\":978:996   */\n      add\n        /* \"#utility.yul\":970:996   */\n      swap1\n      pop\n        /* \"#utility.yul\":1006:1071   */\n      tag_134\n        /* \"#utility.yul\":1068:1069   */\n      0x00\n        /* \"#utility.yul\":1057:1066   */\n      dup4\n        /* \"#utility.yul\":1053:1070   */\n      add\n        /* \"#utility.yul\":1044:1050   */\n      dup5\n        /* \"#utility.yul\":1006:1071   */\n      tag_101\n      jump\t// in\n    tag_134:\n        /* \"#utility.yul\":868:1078   */\n      swap3\n      swap2\n      pop\n      pop\n      jump\t// out\n        /* \"#utility.yul\":1084:1161   */\n    tag_102:\n        /* \"#utility.yul\":1121:1128   */\n      0x00\n        /* \"#utility.yul\":1150:1155   */\n      dup2\n        /* \"#utility.yul\":1139:1155   */\n      swap1\n      pop\n        /* \"#utility.yul\":1084:1161   */\n      swap2\n      swap1\n      pop\n      jump\t// out\n        /* \"#utility.yul\":1167:1285   */\n    tag_103:\n        /* \"#utility.yul\":1254:1278   */\n      tag_137\n        /* \"#utility.yul\":1272:1277   */\n      dup2\n        /* \"#utility.yul\":1254:1278   */\n      tag_102\n      jump\t// in\n    tag_137:\n        /* \"#utility.yul\":1249:1252   */\n      dup3\n        /* \"#utility.yul\":1242:1279   */\n      mstore\n        /* \"#utility.yul\":1167:1285   */\n      pop\n      pop\n      jump\t// out\n        /* \"#utility.yul\":1291:1513   */\n    tag_31:\n        /* \"#utility.yul\":1384:1388   */\n      0x00\n        /* \"#utility.yul\":1422:1424   */\n      0x20\n        /* \"#utility.yul\":1411:1420   */\n      dup3\n        /* \"#utility.yul\":1407:1425   */\n      add\n        /* \"#utility.yul\":1399:1425   */\n      swap1\n      pop\n        /* \"#utility.yul\":1435:1506   */\n      tag_139\n        /* \"#utility.yul\":1503:1504   */\n      0x00\n        /* \"#utility.yul\":1492:1501   */\n      dup4\n        /* \"#utility.yul\":1488:1505   */\n      add\n        /* \"#utility.yul\":1479:1485   */\n      dup5\n        /* \"#utility.yul\":1435:1506   */\n      tag_103\n      jump\t// in\n    tag_139:\n        /* \"#utility.yul\":1291:1513   */\n      swap3\n      swap2\n      pop\n      pop\n      jump\t// out\n        /* \"#utility.yul\":1519:1618   */\n    tag_104:\n        /* \"#utility.yul\":1571:1577   */\n      0x00\n        /* \"#utility.yul\":1605:1610   */\n      dup2\n        /* \"#utility.yul\":1599:1611   */\n      mload\n        /* \"#utility.yul\":1589:1611   */\n      swap1\n      pop\n        /* \"#utility.yul\":1519:1618   */\n      swap2\n      swap1\n      pop\n      jump\t// out\n        /* \"#utility.yul\":1624:1793   */\n    tag_105:\n        /* \"#utility.yul\":1708:1719   */\n      0x00\n        /* \"#utility.yul\":1742:1748   */\n      dup3\n        /* \"#utility.yul\":1737:1740   */\n      dup3\n        /* \"#utility.yul\":1730:1749   */\n      mstore\n        /* \"#utility.yul\":1782:1786   */\n      0x20\n        /* \"#utility.yul\":1777:1780   */\n      dup3\n        /* \"#utility.yul\":1773:1787   */\n      add\n        /* \"#utility.yul\":1758:1787   */\n      swap1\n      pop\n        /* \"#utility.yul\":1624:1793   */\n      swap3\n      swap2\n      pop\n      pop\n      jump\t// out\n        /* \"#utility.yul\":1799:1938   */\n    tag_106:\n        /* \"#utility.yul\":1888:1894   */\n      dup3\n        /* \"#utility.yul\":1883:1886   */\n      dup2\n        /* \"#utility.yul\":1878:1881   */\n      dup4\n        /* \"#utility.yul\":1872:1895   */\n      mcopy\n        /* \"#utility.yul\":1929:1930   */\n      0x00\n        /* \"#utility.yul\":1920:1926   */\n      dup4\n        /* \"#utility.yul\":1915:1918   */\n      dup4\n        /* \"#utility.yul\":1911:1927   */\n      add\n        /* \"#utility.yul\":1904:1931   */\n      mstore\n        /* \"#utility.yul\":1799:1938   */\n      pop\n      pop\n      pop\n      jump\t// out\n        /* \"#utility.yul\":1944:2046   */\n    tag_107:\n        /* \"#utility.yul\":1985:1991   */\n      0x00\n        /* \"#utility.yul\":2036:2038   */\n      0x1f\n        /* \"#utility.yul\":2032:2039   */\n      not\n        /* \"#utility.yul\":2027:2029   */\n      0x1f\n        /* \"#utility.yul\":2020:2025   */\n      dup4\n        /* \"#utility.yul\":2016:2030   */\n      add\n        /* \"#utility.yul\":2012:2040   */\n      and\n        /* \"#utility.yul\":2002:2040   */\n      swap1\n      pop\n        /* \"#utility.yul\":1944:2046   */\n      swap2\n      swap1\n      pop\n      jump\t// out\n        /* \"#utility.yul\":2052:2429   */\n    tag_108:\n        /* \"#utility.yul\":2140:2143   */\n      0x00\n        /* \"#utility.yul\":2168:2207   */\n      tag_145\n        /* \"#utility.yul\":2201:2206   */\n      dup3\n        /* \"#utility.yul\":2168:2207   */\n      tag_104\n      jump\t// in\n    tag_145:\n        /* \"#utility.yul\":2223:2294   */\n      tag_146\n        /* \"#utility.yul\":2287:2293   */\n      dup2\n        /* \"#utility.yul\":2282:2285   */\n      dup6\n        /* \"#utility.yul\":2223:2294   */\n      tag_105\n      jump\t// in\n    tag_146:\n        /* \"#utility.yul\":2216:2294   */\n      swap4\n      pop\n        /* \"#utility.yul\":2303:2368   */\n      tag_147\n        /* \"#utility.yul\":2361:2367   */\n      dup2\n        /* \"#utility.yul\":2356:2359   */\n      dup6\n        /* \"#utility.yul\":2349:2353   */\n      0x20\n        /* \"#utility.yul\":2342:2347   */\n      dup7\n        /* \"#utility.yul\":2338:2354   */\n      add\n        /* \"#utility.yul\":2303:2368   */\n      tag_106\n      jump\t// in\n    tag_147:\n        /* \"#utility.yul\":2393:2422   */\n      tag_148\n        /* \"#utility.yul\":2415:2421   */\n      dup2\n        /* \"#utility.yul\":2393:2422   */\n      tag_107\n      jump\t// in\n    tag_148:\n        /* \"#utility.yul\":2388:2391   */\n      dup5\n        /* \"#utility.yul\":2384:2423   */\n      add\n        /* \"#utility.yul\":2377:2423   */\n      swap2\n      pop\n        /* \"#utility.yul\":2144:2429   */\n      pop\n        /* \"#utility.yul\":2052:2429   */\n      swap3\n      swap2\n      pop\n      pop\n      jump\t// out\n        /* \"#utility.yul\":2435:2748   */\n    tag_36:\n        /* \"#utility.yul\":2548:2552   */\n      0x00\n        /* \"#utility.yul\":2586:2588   */\n      0x20\n        /* \"#utility.yul\":2575:2584   */\n      dup3\n        /* \"#utility.yul\":2571:2589   */\n      add\n        /* \"#utility.yul\":2563:2589   */\n      swap1\n      pop\n        /* \"#utility.yul\":2635:2644   */\n      dup2\n        /* \"#utility.yul\":2629:2633   */\n      dup2\n        /* \"#utility.yul\":2625:2645   */\n      sub\n        /* \"#utility.yul\":2621:2622   */\n      0x00\n        /* \"#utility.yul\":2610:2619   */\n      dup4\n        /* \"#utility.yul\":2606:2623   */\n      add\n        /* \"#utility.yul\":2599:2646   */\n      mstore\n        /* \"#utility.yul\":2663:2741   */\n      tag_150\n        /* \"#utility.yul\":2736:2740   */\n      dup2\n        /* \"#utility.yul\":2727:2733   */\n      dup5\n        /* \"#utility.yul\":2663:2741   */\n      tag_108\n      jump\t// in\n    tag_150:\n        /* \"#utility.yul\":2655:2741   */\n      swap1\n      pop\n        /* \"#utility.yul\":2435:2748   */\n      swap3\n      swap2\n      pop\n      pop\n      jump\t// out\n        /* \"#utility.yul\":2754:2850   */\n    tag_109:\n        /* \"#utility.yul\":2791:2798   */\n      0x00\n        /* \"#utility.yul\":2820:2844   */\n      tag_152\n        /* \"#utility.yul\":2838:2843   */\n      dup3\n        /* \"#utility.yul\":2820:2844   */\n      tag_97\n      jump\t// in\n    tag_152:\n        /* \"#utility.yul\":2809:2844   */\n      swap1\n      pop\n        /* \"#utility.yul\":2754:2850   */\n      swap2\n      swap1\n      pop\n      jump\t// out\n        /* \"#utility.yul\":2856:2974   */\n    tag_110:\n        /* \"#utility.yul\":2943:2967   */\n      tag_154\n        /* \"#utility.yul\":2961:2966   */\n      dup2\n        /* \"#utility.yul\":2943:2967   */\n      tag_109\n      jump\t// in\n    tag_154:\n        /* \"#utility.yul\":2938:2941   */\n      dup3\n        /* \"#utility.yul\":2931:2968   */\n      mstore\n        /* \"#utility.yul\":2856:2974   */\n      pop\n      pop\n      jump\t// out\n        /* \"#utility.yul\":2980:3202   */\n    tag_41:\n        /* \"#utility.yul\":3073:3077   */\n      0x00\n        /* \"#utility.yul\":3111:3113   */\n      0x20\n        /* \"#utility.yul\":3100:3109   */\n      dup3\n        /* \"#utility.yul\":3096:3114   */\n      add\n        /* \"#utility.yul\":3088:3114   */\n      swap1\n      pop\n        /* \"#utility.yul\":3124:3195   */\n      tag_156\n        /* \"#utility.yul\":3192:3193   */\n      0x00\n        /* \"#utility.yul\":3181:3190   */\n      dup4\n        /* \"#utility.yul\":3177:3194   */\n      add\n        /* \"#utility.yul\":3168:3174   */\n      dup5\n        /* \"#utility.yul\":3124:3195   */\n      tag_110\n      jump\t// in\n    tag_156:\n        /* \"#utility.yul\":2980:3202   */\n      swap3\n      swap2\n      pop\n      pop\n      jump\t// out\n        /* \"#utility.yul\":3208:3388   */\n    tag_111:\n        /* \"#utility.yul\":3256:3333   */\n      0x4e487b7100000000000000000000000000000000000000000000000000000000\n        /* \"#utility.yul\":3253:3254   */\n      0x00\n        /* \"#utility.yul\":3246:3334   */\n      mstore\n        /* \"#utility.yul\":3353:3357   */\n      0x11\n        /* \"#utility.yul\":3350:3351   */\n      0x04\n        /* \"#utility.yul\":3343:3358   */\n      mstore\n        /* \"#utility.yul\":3377:3381   */\n      0x24\n        /* \"#utility.yul\":3374:3375   */\n      0x00\n        /* \"#utility.yul\":3367:3382   */\n      revert\n        /* \"#utility.yul\":3394:3585   */\n    tag_56:\n        /* \"#utility.yul\":3434:3437   */\n      0x00\n        /* \"#utility.yul\":3453:3473   */\n      tag_159\n        /* \"#utility.yul\":3471:3472   */\n      dup3\n        /* \"#utility.yul\":3453:3473   */\n      tag_102\n      jump\t// in\n    tag_159:\n        /* \"#utility.yul\":3448:3473   */\n      swap2\n      pop\n        /* \"#utility.yul\":3487:3507   */\n      tag_160\n        /* \"#utility.yul\":3505:3506   */\n      dup4\n        /* \"#utility.yul\":3487:3507   */\n      tag_102\n      jump\t// in\n    tag_160:\n        /* \"#utility.yul\":3482:3507   */\n      swap3\n      pop\n        /* \"#utility.yul\":3530:3531   */\n      dup3\n        /* \"#utility.yul\":3527:3528   */\n      dup3\n        /* \"#utility.yul\":3523:3532   */\n      add\n        /* \"#utility.yul\":3516:3532   */\n      swap1\n      pop\n        /* \"#utility.yul\":3551:3554   */\n      dup1\n        /* \"#utility.yul\":3548:3549   */\n      dup3\n        /* \"#utility.yul\":3545:3555   */\n      gt\n        /* \"#utility.yul\":3542:3578   */\n      iszero\n      tag_161\n      jumpi\n        /* \"#utility.yul\":3558:3576   */\n      tag_162\n      tag_111\n      jump\t// in\n    tag_162:\n        /* \"#utility.yul\":3542:3578   */\n    tag_161:\n        /* \"#utility.yul\":3394:3585   */\n      swap3\n      swap2\n      pop\n      pop\n      jump\t// out\n        /* \"#utility.yul\":3591:3785   */\n    tag_58:\n        /* \"#utility.yul\":3631:3635   */\n      0x00\n        /* \"#utility.yul\":3651:3671   */\n      tag_164\n        /* \"#utility.yul\":3669:3670   */\n      dup3\n        /* \"#utility.yul\":3651:3671   */\n      tag_102\n      jump\t// in\n    tag_164:\n        /* \"#utility.yul\":3646:3671   */\n      swap2\n      pop\n        /* \"#utility.yul\":3685:3705   */\n      tag_165\n        /* \"#utility.yul\":3703:3704   */\n      dup4\n        /* \"#utility.yul\":3685:3705   */\n      tag_102\n      jump\t// in\n    tag_165:\n        /* \"#utility.yul\":3680:3705   */\n      swap3\n      pop\n        /* \"#utility.yul\":3729:3730   */\n      dup3\n        /* \"#utility.yul\":3726:3727   */\n      dup3\n        /* \"#utility.yul\":3722:3731   */\n      sub\n        /* \"#utility.yul\":3714:3731   */\n      swap1\n      pop\n        /* \"#utility.yul\":3753:3754   */\n      dup2\n        /* \"#utility.yul\":3747:3751   */\n      dup2\n        /* \"#utility.yul\":3744:3755   */\n      gt\n        /* \"#utility.yul\":3741:3778   */\n      iszero\n      tag_166\n      jumpi\n        /* \"#utility.yul\":3758:3776   */\n      tag_167\n      tag_111\n      jump\t// in\n    tag_167:\n        /* \"#utility.yul\":3741:3778   */\n    tag_166:\n        /* \"#utility.yul\":3591:3785   */\n      swap3\n      swap2\n      pop\n      pop\n      jump\t// out\n        /* \"#utility.yul\":3791:4233   */\n    tag_60:\n        /* \"#utility.yul\":3940:3944   */\n      0x00\n        /* \"#utility.yul\":3978:3980   */\n      0x60\n        /* \"#utility.yul\":3967:3976   */\n      dup3\n        /* \"#utility.yul\":3963:3981   */\n      add\n        /* \"#utility.yul\":3955:3981   */\n      swap1\n      pop\n        /* \"#utility.yul\":3991:4062   */\n      tag_169\n        /* \"#utility.yul\":4059:4060   */\n      0x00\n        /* \"#utility.yul\":4048:4057   */\n      dup4\n        /* \"#utility.yul\":4044:4061   */\n      add\n        /* \"#utility.yul\":4035:4041   */\n      dup7\n        /* \"#utility.yul\":3991:4062   */\n      tag_110\n      jump\t// in\n    tag_169:\n        /* \"#utility.yul\":4072:4144   */\n      tag_170\n        /* \"#utility.yul\":4140:4142   */\n      0x20\n        /* \"#utility.yul\":4129:4138   */\n      dup4\n        /* \"#utility.yul\":4125:4143   */\n      add\n        /* \"#utility.yul\":4116:4122   */\n      dup6\n        /* \"#utility.yul\":4072:4144   */\n      tag_103\n      jump\t// in\n    tag_170:\n        /* \"#utility.yul\":4154:4226   */\n      tag_171\n        /* \"#utility.yul\":4222:4224   */\n      0x40\n        /* \"#utility.yul\":4211:4220   */\n      dup4\n        /* \"#utility.yul\":4207:4225   */\n      add\n        /* \"#utility.yul\":4198:4204   */\n      dup5\n        /* \"#utility.yul\":4154:4226   */\n      tag_103\n      jump\t// in\n    tag_171:\n        /* \"#utility.yul\":3791:4233   */\n      swap5\n      swap4\n      pop\n      pop\n      pop\n      pop\n      jump\t// out\n        /* \"#utility.yul\":4239:4571   */\n    tag_65:\n        /* \"#utility.yul\":4360:4364   */\n      0x00\n        /* \"#utility.yul\":4398:4400   */\n      0x40\n        /* \"#utility.yul\":4387:4396   */\n      dup3\n        /* \"#utility.yul\":4383:4401   */\n      add\n        /* \"#utility.yul\":4375:4401   */\n      swap1\n      pop\n        /* \"#utility.yul\":4411:4482   */\n      tag_173\n        /* \"#utility.yul\":4479:4480   */\n      0x00\n        /* \"#utility.yul\":4468:4477   */\n      dup4\n        /* \"#utility.yul\":4464:4481   */\n      add\n        /* \"#utility.yul\":4455:4461   */\n      dup6\n        /* \"#utility.yul\":4411:4482   */\n      tag_103\n      jump\t// in\n    tag_173:\n        /* \"#utility.yul\":4492:4564   */\n      tag_174\n        /* \"#utility.yul\":4560:4562   */\n      0x20\n        /* \"#utility.yul\":4549:4558   */\n      dup4\n        /* \"#utility.yul\":4545:4563   */\n      add\n        /* \"#utility.yul\":4536:4542   */\n      dup5\n        /* \"#utility.yul\":4492:4564   */\n      tag_110\n      jump\t// in\n    tag_174:\n        /* \"#utility.yul\":4239:4571   */\n      swap4\n      swap3\n      pop\n      pop\n      pop\n      jump\t// out\n        /* \"#utility.yul\":4577:4724   */\n    tag_112:\n        /* \"#utility.yul\":4678:4689   */\n      0x00\n        /* \"#utility.yul\":4715:4718   */\n      dup2\n        /* \"#utility.yul\":4700:4718   */\n      swap1\n      pop\n        /* \"#utility.yul\":4577:4724   */\n      swap3\n      swap2\n      pop\n      pop\n      jump\t// out\n        /* \"#utility.yul\":4730:4844   */\n    tag_113:\n      pop\n      jump\t// out\n        /* \"#utility.yul\":4850:5248   */\n    tag_114:\n        /* \"#utility.yul\":5009:5012   */\n      0x00\n        /* \"#utility.yul\":5030:5113   */\n      tag_178\n        /* \"#utility.yul\":5111:5112   */\n      0x00\n        /* \"#utility.yul\":5106:5109   */\n      dup4\n        /* \"#utility.yul\":5030:5113   */\n      tag_112\n      jump\t// in\n    tag_178:\n        /* \"#utility.yul\":5023:5113   */\n      swap2\n      pop\n        /* \"#utility.yul\":5122:5215   */\n      tag_179\n        /* \"#utility.yul\":5211:5214   */\n      dup3\n        /* \"#utility.yul\":5122:5215   */\n      tag_113\n      jump\t// in\n    tag_179:\n        /* \"#utility.yul\":5240:5241   */\n      0x00\n        /* \"#utility.yul\":5235:5238   */\n      dup3\n        /* \"#utility.yul\":5231:5242   */\n      add\n        /* \"#utility.yul\":5224:5242   */\n      swap1\n      pop\n        /* \"#utility.yul\":4850:5248   */\n      swap2\n      swap1\n      pop\n      jump\t// out\n        /* \"#utility.yul\":5254:5633   */\n    tag_67:\n        /* \"#utility.yul\":5438:5441   */\n      0x00\n        /* \"#utility.yul\":5460:5607   */\n      tag_181\n        /* \"#utility.yul\":5603:5606   */\n      dup3\n        /* \"#utility.yul\":5460:5607   */\n      tag_114\n      jump\t// in\n    tag_181:\n        /* \"#utility.yul\":5453:5607   */\n      swap2\n      pop\n        /* \"#utility.yul\":5624:5627   */\n      dup2\n        /* \"#utility.yul\":5617:5627   */\n      swap1\n      pop\n        /* \"#utility.yul\":5254:5633   */\n      swap2\n      swap1\n      pop\n      jump\t// out\n        /* \"#utility.yul\":5639:5817   */\n    tag_115:\n        /* \"#utility.yul\":5779:5809   */\n      0x53656e64696e67206d6f6e6579206469646e2774207375636365656400000000\n        /* \"#utility.yul\":5775:5776   */\n      0x00\n        /* \"#utility.yul\":5767:5773   */\n      dup3\n        /* \"#utility.yul\":5763:5777   */\n      add\n        /* \"#utility.yul\":5756:5810   */\n      mstore\n        /* \"#utility.yul\":5639:5817   */\n      pop\n      jump\t// out\n        /* \"#utility.yul\":5823:6189   */\n    tag_116:\n        /* \"#utility.yul\":5965:5968   */\n      0x00\n        /* \"#utility.yul\":5986:6053   */\n      tag_184\n        /* \"#utility.yul\":6050:6052   */\n      0x1c\n        /* \"#utility.yul\":6045:6048   */\n      dup4\n        /* \"#utility.yul\":5986:6053   */\n      tag_105\n      jump\t// in\n    tag_184:\n        /* \"#utility.yul\":5979:6053   */\n      swap2\n      pop\n        /* \"#utility.yul\":6062:6155   */\n      tag_185\n        /* \"#utility.yul\":6151:6154   */\n      dup3\n        /* \"#utility.yul\":6062:6155   */\n      tag_115\n      jump\t// in\n    tag_185:\n        /* \"#utility.yul\":6180:6182   */\n      0x20\n        /* \"#utility.yul\":6175:6178   */\n      dup3\n        /* \"#utility.yul\":6171:6183   */\n      add\n        /* \"#utility.yul\":6164:6183   */\n      swap1\n      pop\n        /* \"#utility.yul\":5823:6189   */\n      swap2\n      swap1\n      pop\n      jump\t// out\n        /* \"#utility.yul\":6195:6614   */\n    tag_73:\n        /* \"#utility.yul\":6361:6365   */\n      0x00\n        /* \"#utility.yul\":6399:6401   */\n      0x20\n        /* \"#utility.yul\":6388:6397   */\n      dup3\n        /* \"#utility.yul\":6384:6402   */\n      add\n        /* \"#utility.yul\":6376:6402   */\n      swap1\n      pop\n        /* \"#utility.yul\":6448:6457   */\n      dup2\n        /* \"#utility.yul\":6442:6446   */\n      dup2\n        /* \"#utility.yul\":6438:6458   */\n      sub\n        /* \"#utility.yul\":6434:6435   */\n      0x00\n        /* \"#utility.yul\":6423:6432   */\n      dup4\n        /* \"#utility.yul\":6419:6436   */\n      add\n        /* \"#utility.yul\":6412:6459   */\n      mstore\n        /* \"#utility.yul\":6476:6607   */\n      tag_187\n        /* \"#utility.yul\":6602:6606   */\n      dup2\n        /* \"#utility.yul\":6476:6607   */\n      tag_116\n      jump\t// in\n    tag_187:\n        /* \"#utility.yul\":6468:6607   */\n      swap1\n      pop\n        /* \"#utility.yul\":6195:6614   */\n      swap2\n      swap1\n      pop\n      jump\t// out\n        /* \"#utility.yul\":6620:6795   */\n    tag_117:\n        /* \"#utility.yul\":6760:6787   */\n      0x41756374696f6e20686173206e6f742079657420656e64656400000000000000\n        /* \"#utility.yul\":6756:6757   */\n      0x00\n        /* \"#utility.yul\":6748:6754   */\n      dup3\n        /* \"#utility.yul\":6744:6758   */\n      add\n        /* \"#utility.yul\":6737:6788   */\n      mstore\n        /* \"#utility.yul\":6620:6795   */\n      pop\n      jump\t// out\n        /* \"#utility.yul\":6801:7167   */\n    tag_118:\n        /* \"#utility.yul\":6943:6946   */\n      0x00\n        /* \"#utility.yul\":6964:7031   */\n      tag_190\n        /* \"#utility.yul\":7028:7030   */\n      0x19\n        /* \"#utility.yul\":7023:7026   */\n      dup4\n        /* \"#utility.yul\":6964:7031   */\n      tag_105\n      jump\t// in\n    tag_190:\n        /* \"#utility.yul\":6957:7031   */\n      swap2\n      pop\n        /* \"#utility.yul\":7040:7133   */\n      tag_191\n        /* \"#utility.yul\":7129:7132   */\n      dup3\n        /* \"#utility.yul\":7040:7133   */\n      tag_117\n      jump\t// in\n    tag_191:\n        /* \"#utility.yul\":7158:7160   */\n      0x20\n        /* \"#utility.yul\":7153:7156   */\n      dup3\n        /* \"#utility.yul\":7149:7161   */\n      add\n        /* \"#utility.yul\":7142:7161   */\n      swap1\n      pop\n        /* \"#utility.yul\":6801:7167   */\n      swap2\n      swap1\n      pop\n      jump\t// out\n        /* \"#utility.yul\":7173:7592   */\n    tag_77:\n        /* \"#utility.yul\":7339:7343   */\n      0x00\n        /* \"#utility.yul\":7377:7379   */\n      0x20\n        /* \"#utility.yul\":7366:7375   */\n      dup3\n        /* \"#utility.yul\":7362:7380   */\n      add\n        /* \"#utility.yul\":7354:7380   */\n      swap1\n      pop\n        /* \"#utility.yul\":7426:7435   */\n      dup2\n        /* \"#utility.yul\":7420:7424   */\n      dup2\n        /* \"#utility.yul\":7416:7436   */\n      sub\n        /* \"#utility.yul\":7412:7413   */\n      0x00\n        /* \"#utility.yul\":7401:7410   */\n      dup4\n        /* \"#utility.yul\":7397:7414   */\n      add\n        /* \"#utility.yul\":7390:7437   */\n      mstore\n        /* \"#utility.yul\":7454:7585   */\n      tag_193\n        /* \"#utility.yul\":7580:7584   */\n      dup2\n        /* \"#utility.yul\":7454:7585   */\n      tag_118\n      jump\t// in\n    tag_193:\n        /* \"#utility.yul\":7446:7585   */\n      swap1\n      pop\n        /* \"#utility.yul\":7173:7592   */\n      swap2\n      swap1\n      pop\n      jump\t// out\n        /* \"#utility.yul\":7598:7766   */\n    tag_119:\n        /* \"#utility.yul\":7738:7758   */\n      0x4e6f742068696768657374206269646465720000000000000000000000000000\n        /* \"#utility.yul\":7734:7735   */\n      0x00\n        /* \"#utility.yul\":7726:7732   */\n      dup3\n        /* \"#utility.yul\":7722:7736   */\n      add\n        /* \"#utility.yul\":7715:7759   */\n      mstore\n        /* \"#utility.yul\":7598:7766   */\n      pop\n      jump\t// out\n        /* \"#utility.yul\":7772:8138   */\n    tag_120:\n        /* \"#utility.yul\":7914:7917   */\n      0x00\n        /* \"#utility.yul\":7935:8002   */\n      tag_196\n        /* \"#utility.yul\":7999:8001   */\n      0x12\n        /* \"#utility.yul\":7994:7997   */\n      dup4\n        /* \"#utility.yul\":7935:8002   */\n      tag_105\n      jump\t// in\n    tag_196:\n        /* \"#utility.yul\":7928:8002   */\n      swap2\n      pop\n        /* \"#utility.yul\":8011:8104   */\n      tag_197\n        /* \"#utility.yul\":8100:8103   */\n      dup3\n        /* \"#utility.yul\":8011:8104   */\n      tag_119\n      jump\t// in\n    tag_197:\n        /* \"#utility.yul\":8129:8131   */\n      0x20\n        /* \"#utility.yul\":8124:8127   */\n      dup3\n        /* \"#utility.yul\":8120:8132   */\n      add\n        /* \"#utility.yul\":8113:8132   */\n      swap1\n      pop\n        /* \"#utility.yul\":7772:8138   */\n      swap2\n      swap1\n      pop\n      jump\t// out\n        /* \"#utility.yul\":8144:8563   */\n    tag_90:\n        /* \"#utility.yul\":8310:8314   */\n      0x00\n        /* \"#utility.yul\":8348:8350   */\n      0x20\n        /* \"#utility.yul\":8337:8346   */\n      dup3\n        /* \"#utility.yul\":8333:8351   */\n      add\n        /* \"#utility.yul\":8325:8351   */\n      swap1\n      pop\n        /* \"#utility.yul\":8397:8406   */\n      dup2\n        /* \"#utility.yul\":8391:8395   */\n      dup2\n        /* \"#utility.yul\":8387:8407   */\n      sub\n        /* \"#utility.yul\":8383:8384   */\n      0x00\n        /* \"#utility.yul\":8372:8381   */\n      dup4\n        /* \"#utility.yul\":8368:8385   */\n      add\n        /* \"#utility.yul\":8361:8408   */\n      mstore\n        /* \"#utility.yul\":8425:8556   */\n      tag_199\n        /* \"#utility.yul\":8551:8555   */\n      dup2\n        /* \"#utility.yul\":8425:8556   */\n      tag_120\n      jump\t// in\n    tag_199:\n        /* \"#utility.yul\":8417:8556   */\n      swap1\n      pop\n        /* \"#utility.yul\":8144:8563   */\n      swap2\n      swap1\n      pop\n      jump\t// out\n        /* \"#utility.yul\":8569:8749   */\n    tag_121:\n        /* \"#utility.yul\":8617:8694   */\n      0x4e487b7100000000000000000000000000000000000000000000000000000000\n        /* \"#utility.yul\":8614:8615   */\n      0x00\n        /* \"#utility.yul\":8607:8695   */\n      mstore\n        /* \"#utility.yul\":8714:8718   */\n      0x22\n        /* \"#utility.yul\":8711:8712   */\n      0x04\n        /* \"#utility.yul\":8704:8719   */\n      mstore\n        /* \"#utility.yul\":8738:8742   */\n      0x24\n        /* \"#utility.yul\":8735:8736   */\n      0x00\n        /* \"#utility.yul\":8728:8743   */\n      revert\n        /* \"#utility.yul\":8755:9075   */\n    tag_92:\n        /* \"#utility.yul\":8799:8805   */\n      0x00\n        /* \"#utility.yul\":8836:8837   */\n      0x02\n        /* \"#utility.yul\":8830:8834   */\n      dup3\n        /* \"#utility.yul\":8826:8838   */\n      div\n        /* \"#utility.yul\":8816:8838   */\n      swap1\n      pop\n        /* \"#utility.yul\":8883:8884   */\n      0x01\n        /* \"#utility.yul\":8877:8881   */\n      dup3\n        /* \"#utility.yul\":8873:8885   */\n      and\n        /* \"#utility.yul\":8904:8922   */\n      dup1\n        /* \"#utility.yul\":8894:8975   */\n      tag_202\n      jumpi\n        /* \"#utility.yul\":8960:8964   */\n      0x7f\n        /* \"#utility.yul\":8952:8958   */\n      dup3\n        /* \"#utility.yul\":8948:8965   */\n      and\n        /* \"#utility.yul\":8938:8965   */\n      swap2\n      pop\n        /* \"#utility.yul\":8894:8975   */\n    tag_202:\n        /* \"#utility.yul\":9022:9024   */\n      0x20\n        /* \"#utility.yul\":9014:9020   */\n      dup3\n        /* \"#utility.yul\":9011:9025   */\n      lt\n        /* \"#utility.yul\":8991:9009   */\n      dup2\n        /* \"#utility.yul\":8988:9026   */\n      sub\n        /* \"#utility.yul\":8985:9069   */\n      tag_203\n      jumpi\n        /* \"#utility.yul\":9041:9059   */\n      tag_204\n      tag_121\n      jump\t// in\n    tag_204:\n        /* \"#utility.yul\":8985:9069   */\n    tag_203:\n        /* \"#utility.yul\":8806:9075   */\n      pop\n        /* \"#utility.yul\":8755:9075   */\n      swap2\n      swap1\n      pop\n      jump\t// out\n\n    auxdata: 0xa26469706673582212202cf5cb2954e7410c77f38f65c002cc91ad8d12c1b6766408dfbc5df414ff4bd464736f6c634300081f0033\n}\n",
				"bytecode": {
					"linkReferences": {},
					"object": "608060405234801561000f575f5ffd5b5060405161135038038061135083398181016040528101906100319190610274565b805f5f6101000a81548173ffffffffffffffffffffffffffffffffffffffff021916908373ffffffffffffffffffffffffffffffffffffffff160217905550824261007c919061030d565b60018190555081600290816100919190610547565b50505050610616565b5f604051905090565b5f5ffd5b5f5ffd5b5f819050919050565b6100bd816100ab565b81146100c7575f5ffd5b50565b5f815190506100d8816100b4565b92915050565b5f5ffd5b5f5ffd5b5f601f19601f8301169050919050565b7f4e487b71000000000000000000000000000000000000000000000000000000005f52604160045260245ffd5b61012c826100e6565b810181811067ffffffffffffffff8211171561014b5761014a6100f6565b5b80604052505050565b5f61015d61009a565b90506101698282610123565b919050565b5f67ffffffffffffffff821115610188576101876100f6565b5b610191826100e6565b9050602081019050919050565b8281835e5f83830152505050565b5f6101be6101b98461016e565b610154565b9050828152602081018484840111156101da576101d96100e2565b5b6101e584828561019e565b509392505050565b5f82601f830112610201576102006100de565b5b81516102118482602086016101ac565b91505092915050565b5f73ffffffffffffffffffffffffffffffffffffffff82169050919050565b5f6102438261021a565b9050919050565b61025381610239565b811461025d575f5ffd5b50565b5f8151905061026e8161024a565b92915050565b5f5f5f6060848603121561028b5761028a6100a3565b5b5f610298868287016100ca565b935050602084015167ffffffffffffffff8111156102b9576102b86100a7565b5b6102c5868287016101ed565b92505060406102d686828701610260565b9150509250925092565b7f4e487b71000000000000000000000000000000000000000000000000000000005f52601160045260245ffd5b5f610317826100ab565b9150610322836100ab565b925082820190508082111561033a576103396102e0565b5b92915050565b5f81519050919050565b7f4e487b71000000000000000000000000000000000000000000000000000000005f52602260045260245ffd5b5f600282049050600182168061038e57607f821691505b6020821081036103a1576103a061034a565b5b50919050565b5f819050815f5260205f209050919050565b5f6020601f8301049050919050565b5f82821b905092915050565b5f600883026104037fffffffffffffffffffffffffffffffffffffffffffffffffffffffffffffffff826103c8565b61040d86836103c8565b95508019841693508086168417925050509392505050565b5f819050919050565b5f61044861044361043e846100ab565b610425565b6100ab565b9050919050565b5f819050919050565b6104618361042e565b61047561046d8261044f565b8484546103d4565b825550505050565b5f5f905090565b61048c61047d565b610497818484610458565b505050565b5b818110156104ba576104af5f82610484565b60018101905061049d565b5050565b601f8211156104ff576104d0816103a7565b6104d9846103b9565b810160208510156104e8578190505b6104fc6104f4856103b9565b83018261049c565b50505b505050565b5f82821c905092915050565b5f61051f5f1984600802610504565b1980831691505092915050565b5f6105378383610510565b9150826002028217905092915050565b61055082610340565b67ffffffffffffffff811115610569576105686100f6565b5b6105738254610377565b61057e8282856104be565b5f60209050601f8311600181146105af575f841561059d578287015190505b6105a7858261052c565b86555061060e565b601f1984166105bd866103a7565b5f5b828110156105e4578489015182556001820191506020850194506020810190506105bf565b8683101561060157848901516105fd601f891682610510565b8355505b6001600288020188555050505b505050505050565b610d2d806106235f395ff3fe608060405260043610610085575f3560e01c80634b449cba116100585780634b449cba146100fd5780634d2102d41461012757806391f9015714610151578063d57bde791461017b578063dd56653c146101a557610085565b80631998aeef146100895780632a24f46c1461009357806338af3eed146100a95780633ccfd60b146100d3575b5f5ffd5b6100916101cf565b005b34801561009e575f5ffd5b506100a7610377565b005b3480156100b4575f5ffd5b506100bd61053c565b6040516100ca91906108ec565b60405180910390f35b3480156100de575f5ffd5b506100e7610560565b6040516100f4919061091f565b60405180910390f35b348015610108575f5ffd5b50610111610709565b60405161011e9190610950565b60405180910390f35b348015610132575f5ffd5b5061013b61070f565b60405161014891906109d9565b60405180910390f35b34801561015c575f5ffd5b5061016561087c565b6040516101729190610a19565b60405180910390f35b348015610186575f5ffd5b5061018f6108a1565b60405161019c9190610950565b60405180910390f35b3480156101b0575f5ffd5b506101b96108a7565b6040516101c69190610950565b60405180910390f35b60075f9054906101000a900460ff1615610215576040517fd02e774d00000000000000000000000000000000000000000000000000000000815260040160405180910390fd5b600454341161025d576004546040517f4e12c1bb0000000000000000000000000000000000000000000000000000000081526004016102549190610950565b60405180910390fd5b5f600454146102dd5760045460065f60035f9054906101000a900473ffffffffffffffffffffffffffffffffffffffff1673ffffffffffffffffffffffffffffffffffffffff1673ffffffffffffffffffffffffffffffffffffffff1681526020019081526020015f205f8282546102d59190610a5f565b925050819055505b600454346102eb9190610a92565b600581905550346004819055503360035f6101000a81548173ffffffffffffffffffffffffffffffffffffffff021916908373ffffffffffffffffffffffffffffffffffffffff1602179055507fdafc4a123c6bb3b49dd38a0cba299808581a0126a37248a5f1102d5e5fa06337333460055460405161036d93929190610ac5565b60405180910390a1565b6001544210156103b3576040517f72d1250d00000000000000000000000000000000000000000000000000000000815260040160405180910390fd5b60075f9054906101000a900460ff16156103f9576040517fd02e774d00000000000000000000000000000000000000000000000000000000815260040160405180910390fd5b600160075f6101000a81548160ff0219169083151502179055507f18a34742fba234dafde701c2a3845a1f1efb03f42641f954590dd9bab007eaf360045460035f9054906101000a900473ffffffffffffffffffffffffffffffffffffffff16604051610467929190610afa565b60405180910390a15f5f5f9054906101000a900473ffffffffffffffffffffffffffffffffffffffff1673ffffffffffffffffffffffffffffffffffffffff166004546040516104b690610b4e565b5f6040518083038185875af1925050503d805f81146104f0576040519150601f19603f3d011682016040523d82523d5f602084013e6104f5565b606091505b5050905080610539576040517f08c379a000000000000000000000000000000000000000000000000000000000815260040161053090610bac565b60405180910390fd5b50565b5f5f9054906101000a900473ffffffffffffffffffffffffffffffffffffffff1681565b5f5f60065f3373ffffffffffffffffffffffffffffffffffffffff1673ffffffffffffffffffffffffffffffffffffffff1681526020019081526020015f2054905060075f9054906101000a900460ff166105f0576040517f08c379a00000000000000000000000000000000000000000000000000000000081526004016105e790610c14565b60405180910390fd5b5f81116105fb575f5ffd5b5f811115610700575f60065f3373ffffffffffffffffffffffffffffffffffffffff1673ffffffffffffffffffffffffffffffffffffffff1681526020019081526020015f20819055505f3373ffffffffffffffffffffffffffffffffffffffff168260405161066a90610b4e565b5f6040518083038185875af1925050503d805f81146106a4576040519150601f19603f3d011682016040523d82523d5f602084013e6106a9565b606091505b50509050806106fe578160065f3373ffffffffffffffffffffffffffffffffffffffff1673ffffffffffffffffffffffffffffffffffffffff1681526020019081526020015f20819055505f92505050610706565b505b60019150505b90565b60015481565b606060075f9054906101000a900460ff1661075f576040517f08c379a000000000000000000000000000000000000000000000000000000000815260040161075690610c14565b60405180910390fd5b3373ffffffffffffffffffffffffffffffffffffffff1660035f9054906101000a900473ffffffffffffffffffffffffffffffffffffffff1673ffffffffffffffffffffffffffffffffffffffff16146107ee576040517f08c379a00000000000000000000000000000000000000000000000000000000081526004016107e590610c7c565b60405180910390fd5b600280546107fb90610cc7565b80601f016020809104026020016040519081016040528092919081815260200182805461082790610cc7565b80156108725780601f1061084957610100808354040283529160200191610872565b820191905f5260205f20905b81548152906001019060200180831161085557829003601f168201915b5050505050905090565b60035f9054906101000a900473ffffffffffffffffffffffffffffffffffffffff1681565b60045481565b60055481565b5f73ffffffffffffffffffffffffffffffffffffffff82169050919050565b5f6108d6826108ad565b9050919050565b6108e6816108cc565b82525050565b5f6020820190506108ff5f8301846108dd565b92915050565b5f8115159050919050565b61091981610905565b82525050565b5f6020820190506109325f830184610910565b92915050565b5f819050919050565b61094a81610938565b82525050565b5f6020820190506109635f830184610941565b92915050565b5f81519050919050565b5f82825260208201905092915050565b8281835e5f83830152505050565b5f601f19601f8301169050919050565b5f6109ab82610969565b6109b58185610973565b93506109c5818560208601610983565b6109ce81610991565b840191505092915050565b5f6020820190508181035f8301526109f181846109a1565b905092915050565b5f610a03826108ad565b9050919050565b610a13816109f9565b82525050565b5f602082019050610a2c5f830184610a0a565b92915050565b7f4e487b71000000000000000000000000000000000000000000000000000000005f52601160045260245ffd5b5f610a6982610938565b9150610a7483610938565b9250828201905080821115610a8c57610a8b610a32565b5b92915050565b5f610a9c82610938565b9150610aa783610938565b9250828203905081811115610abf57610abe610a32565b5b92915050565b5f606082019050610ad85f830186610a0a565b610ae56020830185610941565b610af26040830184610941565b949350505050565b5f604082019050610b0d5f830185610941565b610b1a6020830184610a0a565b9392505050565b5f81905092915050565b50565b5f610b395f83610b21565b9150610b4482610b2b565b5f82019050919050565b5f610b5882610b2e565b9150819050919050565b7f53656e64696e67206d6f6e6579206469646e27742073756363656564000000005f82015250565b5f610b96601c83610973565b9150610ba182610b62565b602082019050919050565b5f6020820190508181035f830152610bc381610b8a565b9050919050565b7f41756374696f6e20686173206e6f742079657420656e646564000000000000005f82015250565b5f610bfe601983610973565b9150610c0982610bca565b602082019050919050565b5f6020820190508181035f830152610c2b81610bf2565b9050919050565b7f4e6f7420686967686573742062696464657200000000000000000000000000005f82015250565b5f610c66601283610973565b9150610c7182610c32565b602082019050919050565b5f6020820190508181035f830152610c9381610c5a565b9050919050565b7f4e487b71000000000000000000000000000000000000000000000000000000005f52602260045260245ffd5b5f6002820490506001821680610cde57607f821691505b602082108103610cf157610cf0610c9a565b5b5091905056fea26469706673582212202cf5cb2954e7410c77f38f65c002cc91ad8d12c1b6766408dfbc5df414ff4bd464736f6c634300081f0033",
					"opcodes": "PUSH1 0x80 PUSH1 0x40 MSTORE CALLVALUE DUP1 ISZERO PUSH2 0xF JUMPI PUSH0 PUSH0 REVERT JUMPDEST POP PUSH1 0x40 MLOAD PUSH2 0x1350 CODESIZE SUB DUP1 PUSH2 0x1350 DUP4 CODECOPY DUP2 DUP2 ADD PUSH1 0x40 MSTORE DUP2 ADD SWAP1 PUSH2 0x31 SWAP2 SWAP1 PUSH2 0x274 JUMP JUMPDEST DUP1 PUSH0 PUSH0 PUSH2 0x100 EXP DUP2 SLOAD DUP2 PUSH20 0xFFFFFFFFFFFFFFFFFFFFFFFFFFFFFFFFFFFFFFFF MUL NOT AND SWAP1 DUP4 PUSH20 0xFFFFFFFFFFFFFFFFFFFFFFFFFFFFFFFFFFFFFFFF AND MUL OR SWAP1 SSTORE POP DUP3 TIMESTAMP PUSH2 0x7C SWAP2 SWAP1 PUSH2 0x30D JUMP JUMPDEST PUSH1 0x1 DUP2 SWAP1 SSTORE POP DUP2 PUSH1 0x2 SWAP1 DUP2 PUSH2 0x91 SWAP2 SWAP1 PUSH2 0x547 JUMP JUMPDEST POP POP POP POP PUSH2 0x616 JUMP JUMPDEST PUSH0 PUSH1 0x40 MLOAD SWAP1 POP SWAP1 JUMP JUMPDEST PUSH0 PUSH0 REVERT JUMPDEST PUSH0 PUSH0 REVERT JUMPDEST PUSH0 DUP2 SWAP1 POP SWAP2 SWAP1 POP JUMP JUMPDEST PUSH2 0xBD DUP2 PUSH2 0xAB JUMP JUMPDEST DUP2 EQ PUSH2 0xC7 JUMPI PUSH0 PUSH0 REVERT JUMPDEST POP JUMP JUMPDEST PUSH0 DUP2 MLOAD SWAP1 POP PUSH2 0xD8 DUP2 PUSH2 0xB4 JUMP JUMPDEST SWAP3 SWAP2 POP POP JUMP JUMPDEST PUSH0 PUSH0 REVERT JUMPDEST PUSH0 PUSH0 REVERT JUMPDEST PUSH0 PUSH1 0x1F NOT PUSH1 0x1F DUP4 ADD AND SWAP1 POP SWAP2 SWAP1 POP JUMP JUMPDEST PUSH32 0x4E487B7100000000000000000000000000000000000000000000000000000000 PUSH0 MSTORE PUSH1 0x41 PUSH1 0x4 MSTORE PUSH1 0x24 PUSH0 REVERT JUMPDEST PUSH2 0x12C DUP3 PUSH2 0xE6 JUMP JUMPDEST DUP2 ADD DUP2 DUP2 LT PUSH8 0xFFFFFFFFFFFFFFFF DUP3 GT OR ISZERO PUSH2 0x14B JUMPI PUSH2 0x14A PUSH2 0xF6 JUMP JUMPDEST JUMPDEST DUP1 PUSH1 0x40 MSTORE POP POP POP JUMP JUMPDEST PUSH0 PUSH2 0x15D PUSH2 0x9A JUMP JUMPDEST SWAP1 POP PUSH2 0x169 DUP3 DUP3 PUSH2 0x123 JUMP JUMPDEST SWAP2 SWAP1 POP JUMP JUMPDEST PUSH0 PUSH8 0xFFFFFFFFFFFFFFFF DUP3 GT ISZERO PUSH2 0x188 JUMPI PUSH2 0x187 PUSH2 0xF6 JUMP JUMPDEST JUMPDEST PUSH2 0x191 DUP3 PUSH2 0xE6 JUMP JUMPDEST SWAP1 POP PUSH1 0x20 DUP2 ADD SWAP1 POP SWAP2 SWAP1 POP JUMP JUMPDEST DUP3 DUP2 DUP4 MCOPY PUSH0 DUP4 DUP4 ADD MSTORE POP POP POP JUMP JUMPDEST PUSH0 PUSH2 0x1BE PUSH2 0x1B9 DUP5 PUSH2 0x16E JUMP JUMPDEST PUSH2 0x154 JUMP JUMPDEST SWAP1 POP DUP3 DUP2 MSTORE PUSH1 0x20 DUP2 ADD DUP5 DUP5 DUP5 ADD GT ISZERO PUSH2 0x1DA JUMPI PUSH2 0x1D9 PUSH2 0xE2 JUMP JUMPDEST JUMPDEST PUSH2 0x1E5 DUP5 DUP3 DUP6 PUSH2 0x19E JUMP JUMPDEST POP SWAP4 SWAP3 POP POP POP JUMP JUMPDEST PUSH0 DUP3 PUSH1 0x1F DUP4 ADD SLT PUSH2 0x201 JUMPI PUSH2 0x200 PUSH2 0xDE JUMP JUMPDEST JUMPDEST DUP2 MLOAD PUSH2 0x211 DUP5 DUP3 PUSH1 0x20 DUP7 ADD PUSH2 0x1AC JUMP JUMPDEST SWAP2 POP POP SWAP3 SWAP2 POP POP JUMP JUMPDEST PUSH0 PUSH20 0xFFFFFFFFFFFFFFFFFFFFFFFFFFFFFFFFFFFFFFFF DUP3 AND SWAP1 POP SWAP2 SWAP1 POP JUMP JUMPDEST PUSH0 PUSH2 0x243 DUP3 PUSH2 0x21A JUMP JUMPDEST SWAP1 POP SWAP2 SWAP1 POP JUMP JUMPDEST PUSH2 0x253 DUP2 PUSH2 0x239 JUMP JUMPDEST DUP2 EQ PUSH2 0x25D JUMPI PUSH0 PUSH0 REVERT JUMPDEST POP JUMP JUMPDEST PUSH0 DUP2 MLOAD SWAP1 POP PUSH2 0x26E DUP2 PUSH2 0x24A JUMP JUMPDEST SWAP3 SWAP2 POP POP JUMP JUMPDEST PUSH0 PUSH0 PUSH0 PUSH1 0x60 DUP5 DUP7 SUB SLT ISZERO PUSH2 0x28B JUMPI PUSH2 0x28A PUSH2 0xA3 JUMP JUMPDEST JUMPDEST PUSH0 PUSH2 0x298 DUP7 DUP3 DUP8 ADD PUSH2 0xCA JUMP JUMPDEST SWAP4 POP POP PUSH1 0x20 DUP5 ADD MLOAD PUSH8 0xFFFFFFFFFFFFFFFF DUP2 GT ISZERO PUSH2 0x2B9 JUMPI PUSH2 0x2B8 PUSH2 0xA7 JUMP JUMPDEST JUMPDEST PUSH2 0x2C5 DUP7 DUP3 DUP8 ADD PUSH2 0x1ED JUMP JUMPDEST SWAP3 POP POP PUSH1 0x40 PUSH2 0x2D6 DUP7 DUP3 DUP8 ADD PUSH2 0x260 JUMP JUMPDEST SWAP2 POP POP SWAP3 POP SWAP3 POP SWAP3 JUMP JUMPDEST PUSH32 0x4E487B7100000000000000000000000000000000000000000000000000000000 PUSH0 MSTORE PUSH1 0x11 PUSH1 0x4 MSTORE PUSH1 0x24 PUSH0 REVERT JUMPDEST PUSH0 PUSH2 0x317 DUP3 PUSH2 0xAB JUMP JUMPDEST SWAP2 POP PUSH2 0x322 DUP4 PUSH2 0xAB JUMP JUMPDEST SWAP3 POP DUP3 DUP3 ADD SWAP1 POP DUP1 DUP3 GT ISZERO PUSH2 0x33A JUMPI PUSH2 0x339 PUSH2 0x2E0 JUMP JUMPDEST JUMPDEST SWAP3 SWAP2 POP POP JUMP JUMPDEST PUSH0 DUP2 MLOAD SWAP1 POP SWAP2 SWAP1 POP JUMP JUMPDEST PUSH32 0x4E487B7100000000000000000000000000000000000000000000000000000000 PUSH0 MSTORE PUSH1 0x22 PUSH1 0x4 MSTORE PUSH1 0x24 PUSH0 REVERT JUMPDEST PUSH0 PUSH1 0x2 DUP3 DIV SWAP1 POP PUSH1 0x1 DUP3 AND DUP1 PUSH2 0x38E JUMPI PUSH1 0x7F DUP3 AND SWAP2 POP JUMPDEST PUSH1 0x20 DUP3 LT DUP2 SUB PUSH2 0x3A1 JUMPI PUSH2 0x3A0 PUSH2 0x34A JUMP JUMPDEST JUMPDEST POP SWAP2 SWAP1 POP JUMP JUMPDEST PUSH0 DUP2 SWAP1 POP DUP2 PUSH0 MSTORE PUSH1 0x20 PUSH0 KECCAK256 SWAP1 POP SWAP2 SWAP1 POP JUMP JUMPDEST PUSH0 PUSH1 0x20 PUSH1 0x1F DUP4 ADD DIV SWAP1 POP SWAP2 SWAP1 POP JUMP JUMPDEST PUSH0 DUP3 DUP3 SHL SWAP1 POP SWAP3 SWAP2 POP POP JUMP JUMPDEST PUSH0 PUSH1 0x8 DUP4 MUL PUSH2 0x403 PUSH32 0xFFFFFFFFFFFFFFFFFFFFFFFFFFFFFFFFFFFFFFFFFFFFFFFFFFFFFFFFFFFFFFFF DUP3 PUSH2 0x3C8 JUMP JUMPDEST PUSH2 0x40D DUP7 DUP4 PUSH2 0x3C8 JUMP JUMPDEST SWAP6 POP DUP1 NOT DUP5 AND SWAP4 POP DUP1 DUP7 AND DUP5 OR SWAP3 POP POP POP SWAP4 SWAP3 POP POP POP JUMP JUMPDEST PUSH0 DUP2 SWAP1 POP SWAP2 SWAP1 POP JUMP JUMPDEST PUSH0 PUSH2 0x448 PUSH2 0x443 PUSH2 0x43E DUP5 PUSH2 0xAB JUMP JUMPDEST PUSH2 0x425 JUMP JUMPDEST PUSH2 0xAB JUMP JUMPDEST SWAP1 POP SWAP2 SWAP1 POP JUMP JUMPDEST PUSH0 DUP2 SWAP1 POP SWAP2 SWAP1 POP JUMP JUMPDEST PUSH2 0x461 DUP4 PUSH2 0x42E JUMP JUMPDEST PUSH2 0x475 PUSH2 0x46D DUP3 PUSH2 0x44F JUMP JUMPDEST DUP5 DUP5 SLOAD PUSH2 0x3D4 JUMP JUMPDEST DUP3 SSTORE POP POP POP POP JUMP JUMPDEST PUSH0 PUSH0 SWAP1 POP SWAP1 JUMP JUMPDEST PUSH2 0x48C PUSH2 0x47D JUMP JUMPDEST PUSH2 0x497 DUP2 DUP5 DUP5 PUSH2 0x458 JUMP JUMPDEST POP POP POP JUMP JUMPDEST JUMPDEST DUP2 DUP2 LT ISZERO PUSH2 0x4BA JUMPI PUSH2 0x4AF PUSH0 DUP3 PUSH2 0x484 JUMP JUMPDEST PUSH1 0x1 DUP2 ADD SWAP1 POP PUSH2 0x49D JUMP JUMPDEST POP POP JUMP JUMPDEST PUSH1 0x1F DUP3 GT ISZERO PUSH2 0x4FF JUMPI PUSH2 0x4D0 DUP2 PUSH2 0x3A7 JUMP JUMPDEST PUSH2 0x4D9 DUP5 PUSH2 0x3B9 JUMP JUMPDEST DUP2 ADD PUSH1 0x20 DUP6 LT ISZERO PUSH2 0x4E8 JUMPI DUP2 SWAP1 POP JUMPDEST PUSH2 0x4FC PUSH2 0x4F4 DUP6 PUSH2 0x3B9 JUMP JUMPDEST DUP4 ADD DUP3 PUSH2 0x49C JUMP JUMPDEST POP POP JUMPDEST POP POP POP JUMP JUMPDEST PUSH0 DUP3 DUP3 SHR SWAP1 POP SWAP3 SWAP2 POP POP JUMP JUMPDEST PUSH0 PUSH2 0x51F PUSH0 NOT DUP5 PUSH1 0x8 MUL PUSH2 0x504 JUMP JUMPDEST NOT DUP1 DUP4 AND SWAP2 POP POP SWAP3 SWAP2 POP POP JUMP JUMPDEST PUSH0 PUSH2 0x537 DUP4 DUP4 PUSH2 0x510 JUMP JUMPDEST SWAP2 POP DUP3 PUSH1 0x2 MUL DUP3 OR SWAP1 POP SWAP3 SWAP2 POP POP JUMP JUMPDEST PUSH2 0x550 DUP3 PUSH2 0x340 JUMP JUMPDEST PUSH8 0xFFFFFFFFFFFFFFFF DUP2 GT ISZERO PUSH2 0x569 JUMPI PUSH2 0x568 PUSH2 0xF6 JUMP JUMPDEST JUMPDEST PUSH2 0x573 DUP3 SLOAD PUSH2 0x377 JUMP JUMPDEST PUSH2 0x57E DUP3 DUP3 DUP6 PUSH2 0x4BE JUMP JUMPDEST PUSH0 PUSH1 0x20 SWAP1 POP PUSH1 0x1F DUP4 GT PUSH1 0x1 DUP2 EQ PUSH2 0x5AF JUMPI PUSH0 DUP5 ISZERO PUSH2 0x59D JUMPI DUP3 DUP8 ADD MLOAD SWAP1 POP JUMPDEST PUSH2 0x5A7 DUP6 DUP3 PUSH2 0x52C JUMP JUMPDEST DUP7 SSTORE POP PUSH2 0x60E JUMP JUMPDEST PUSH1 0x1F NOT DUP5 AND PUSH2 0x5BD DUP7 PUSH2 0x3A7 JUMP JUMPDEST PUSH0 JUMPDEST DUP3 DUP2 LT ISZERO PUSH2 0x5E4 JUMPI DUP5 DUP10 ADD MLOAD DUP3 SSTORE PUSH1 0x1 DUP3 ADD SWAP2 POP PUSH1 0x20 DUP6 ADD SWAP5 POP PUSH1 0x20 DUP2 ADD SWAP1 POP PUSH2 0x5BF JUMP JUMPDEST DUP7 DUP4 LT ISZERO PUSH2 0x601 JUMPI DUP5 DUP10 ADD MLOAD PUSH2 0x5FD PUSH1 0x1F DUP10 AND DUP3 PUSH2 0x510 JUMP JUMPDEST DUP4 SSTORE POP JUMPDEST PUSH1 0x1 PUSH1 0x2 DUP9 MUL ADD DUP9 SSTORE POP POP POP JUMPDEST POP POP POP POP POP POP JUMP JUMPDEST PUSH2 0xD2D DUP1 PUSH2 0x623 PUSH0 CODECOPY PUSH0 RETURN INVALID PUSH1 0x80 PUSH1 0x40 MSTORE PUSH1 0x4 CALLDATASIZE LT PUSH2 0x85 JUMPI PUSH0 CALLDATALOAD PUSH1 0xE0 SHR DUP1 PUSH4 0x4B449CBA GT PUSH2 0x58 JUMPI DUP1 PUSH4 0x4B449CBA EQ PUSH2 0xFD JUMPI DUP1 PUSH4 0x4D2102D4 EQ PUSH2 0x127 JUMPI DUP1 PUSH4 0x91F90157 EQ PUSH2 0x151 JUMPI DUP1 PUSH4 0xD57BDE79 EQ PUSH2 0x17B JUMPI DUP1 PUSH4 0xDD56653C EQ PUSH2 0x1A5 JUMPI PUSH2 0x85 JUMP JUMPDEST DUP1 PUSH4 0x1998AEEF EQ PUSH2 0x89 JUMPI DUP1 PUSH4 0x2A24F46C EQ PUSH2 0x93 JUMPI DUP1 PUSH4 0x38AF3EED EQ PUSH2 0xA9 JUMPI DUP1 PUSH4 0x3CCFD60B EQ PUSH2 0xD3 JUMPI JUMPDEST PUSH0 PUSH0 REVERT JUMPDEST PUSH2 0x91 PUSH2 0x1CF JUMP JUMPDEST STOP JUMPDEST CALLVALUE DUP1 ISZERO PUSH2 0x9E JUMPI PUSH0 PUSH0 REVERT JUMPDEST POP PUSH2 0xA7 PUSH2 0x377 JUMP JUMPDEST STOP JUMPDEST CALLVALUE DUP1 ISZERO PUSH2 0xB4 JUMPI PUSH0 PUSH0 REVERT JUMPDEST POP PUSH2 0xBD PUSH2 0x53C JUMP JUMPDEST PUSH1 0x40 MLOAD PUSH2 0xCA SWAP2 SWAP1 PUSH2 0x8EC JUMP JUMPDEST PUSH1 0x40 MLOAD DUP1 SWAP2 SUB SWAP1 RETURN JUMPDEST CALLVALUE DUP1 ISZERO PUSH2 0xDE JUMPI PUSH0 PUSH0 REVERT JUMPDEST POP PUSH2 0xE7 PUSH2 0x560 JUMP JUMPDEST PUSH1 0x40 MLOAD PUSH2 0xF4 SWAP2 SWAP1 PUSH2 0x91F JUMP JUMPDEST PUSH1 0x40 MLOAD DUP1 SWAP2 SUB SWAP1 RETURN JUMPDEST CALLVALUE DUP1 ISZERO PUSH2 0x108 JUMPI PUSH0 PUSH0 REVERT JUMPDEST POP PUSH2 0x111 PUSH2 0x709 JUMP JUMPDEST PUSH1 0x40 MLOAD PUSH2 0x11E SWAP2 SWAP1 PUSH2 0x950 JUMP JUMPDEST PUSH1 0x40 MLOAD DUP1 SWAP2 SUB SWAP1 RETURN JUMPDEST CALLVALUE DUP1 ISZERO PUSH2 0x132 JUMPI PUSH0 PUSH0 REVERT JUMPDEST POP PUSH2 0x13B PUSH2 0x70F JUMP JUMPDEST PUSH1 0x40 MLOAD PUSH2 0x148 SWAP2 SWAP1 PUSH2 0x9D9 JUMP JUMPDEST PUSH1 0x40 MLOAD DUP1 SWAP2 SUB SWAP1 RETURN JUMPDEST CALLVALUE DUP1 ISZERO PUSH2 0x15C JUMPI PUSH0 PUSH0 REVERT JUMPDEST POP PUSH2 0x165 PUSH2 0x87C JUMP JUMPDEST PUSH1 0x40 MLOAD PUSH2 0x172 SWAP2 SWAP1 PUSH2 0xA19 JUMP JUMPDEST PUSH1 0x40 MLOAD DUP1 SWAP2 SUB SWAP1 RETURN JUMPDEST CALLVALUE DUP1 ISZERO PUSH2 0x186 JUMPI PUSH0 PUSH0 REVERT JUMPDEST POP PUSH2 0x18F PUSH2 0x8A1 JUMP JUMPDEST PUSH1 0x40 MLOAD PUSH2 0x19C SWAP2 SWAP1 PUSH2 0x950 JUMP JUMPDEST PUSH1 0x40 MLOAD DUP1 SWAP2 SUB SWAP1 RETURN JUMPDEST CALLVALUE DUP1 ISZERO PUSH2 0x1B0 JUMPI PUSH0 PUSH0 REVERT JUMPDEST POP PUSH2 0x1B9 PUSH2 0x8A7 JUMP JUMPDEST PUSH1 0x40 MLOAD PUSH2 0x1C6 SWAP2 SWAP1 PUSH2 0x950 JUMP JUMPDEST PUSH1 0x40 MLOAD DUP1 SWAP2 SUB SWAP1 RETURN JUMPDEST PUSH1 0x7 PUSH0 SWAP1 SLOAD SWAP1 PUSH2 0x100 EXP SWAP1 DIV PUSH1 0xFF AND ISZERO PUSH2 0x215 JUMPI PUSH1 0x40 MLOAD PUSH32 0xD02E774D00000000000000000000000000000000000000000000000000000000 DUP2 MSTORE PUSH1 0x4 ADD PUSH1 0x40 MLOAD DUP1 SWAP2 SUB SWAP1 REVERT JUMPDEST PUSH1 0x4 SLOAD CALLVALUE GT PUSH2 0x25D JUMPI PUSH1 0x4 SLOAD PUSH1 0x40 MLOAD PUSH32 0x4E12C1BB00000000000000000000000000000000000000000000000000000000 DUP2 MSTORE PUSH1 0x4 ADD PUSH2 0x254 SWAP2 SWAP1 PUSH2 0x950 JUMP JUMPDEST PUSH1 0x40 MLOAD DUP1 SWAP2 SUB SWAP1 REVERT JUMPDEST PUSH0 PUSH1 0x4 SLOAD EQ PUSH2 0x2DD JUMPI PUSH1 0x4 SLOAD PUSH1 0x6 PUSH0 PUSH1 0x3 PUSH0 SWAP1 SLOAD SWAP1 PUSH2 0x100 EXP SWAP1 DIV PUSH20 0xFFFFFFFFFFFFFFFFFFFFFFFFFFFFFFFFFFFFFFFF AND PUSH20 0xFFFFFFFFFFFFFFFFFFFFFFFFFFFFFFFFFFFFFFFF AND PUSH20 0xFFFFFFFFFFFFFFFFFFFFFFFFFFFFFFFFFFFFFFFF AND DUP2 MSTORE PUSH1 0x20 ADD SWAP1 DUP2 MSTORE PUSH1 0x20 ADD PUSH0 KECCAK256 PUSH0 DUP3 DUP3 SLOAD PUSH2 0x2D5 SWAP2 SWAP1 PUSH2 0xA5F JUMP JUMPDEST SWAP3 POP POP DUP2 SWAP1 SSTORE POP JUMPDEST PUSH1 0x4 SLOAD CALLVALUE PUSH2 0x2EB SWAP2 SWAP1 PUSH2 0xA92 JUMP JUMPDEST PUSH1 0x5 DUP2 SWAP1 SSTORE POP CALLVALUE PUSH1 0x4 DUP2 SWAP1 SSTORE POP CALLER PUSH1 0x3 PUSH0 PUSH2 0x100 EXP DUP2 SLOAD DUP2 PUSH20 0xFFFFFFFFFFFFFFFFFFFFFFFFFFFFFFFFFFFFFFFF MUL NOT AND SWAP1 DUP4 PUSH20 0xFFFFFFFFFFFFFFFFFFFFFFFFFFFFFFFFFFFFFFFF AND MUL OR SWAP1 SSTORE POP PUSH32 0xDAFC4A123C6BB3B49DD38A0CBA299808581A0126A37248A5F1102D5E5FA06337 CALLER CALLVALUE PUSH1 0x5 SLOAD PUSH1 0x40 MLOAD PUSH2 0x36D SWAP4 SWAP3 SWAP2 SWAP1 PUSH2 0xAC5 JUMP JUMPDEST PUSH1 0x40 MLOAD DUP1 SWAP2 SUB SWAP1 LOG1 JUMP JUMPDEST PUSH1 0x1 SLOAD TIMESTAMP LT ISZERO PUSH2 0x3B3 JUMPI PUSH1 0x40 MLOAD PUSH32 0x72D1250D00000000000000000000000000000000000000000000000000000000 DUP2 MSTORE PUSH1 0x4 ADD PUSH1 0x40 MLOAD DUP1 SWAP2 SUB SWAP1 REVERT JUMPDEST PUSH1 0x7 PUSH0 SWAP1 SLOAD SWAP1 PUSH2 0x100 EXP SWAP1 DIV PUSH1 0xFF AND ISZERO PUSH2 0x3F9 JUMPI PUSH1 0x40 MLOAD PUSH32 0xD02E774D00000000000000000000000000000000000000000000000000000000 DUP2 MSTORE PUSH1 0x4 ADD PUSH1 0x40 MLOAD DUP1 SWAP2 SUB SWAP1 REVERT JUMPDEST PUSH1 0x1 PUSH1 0x7 PUSH0 PUSH2 0x100 EXP DUP2 SLOAD DUP2 PUSH1 0xFF MUL NOT AND SWAP1 DUP4 ISZERO ISZERO MUL OR SWAP1 SSTORE POP PUSH32 0x18A34742FBA234DAFDE701C2A3845A1F1EFB03F42641F954590DD9BAB007EAF3 PUSH1 0x4 SLOAD PUSH1 0x3 PUSH0 SWAP1 SLOAD SWAP1 PUSH2 0x100 EXP SWAP1 DIV PUSH20 0xFFFFFFFFFFFFFFFFFFFFFFFFFFFFFFFFFFFFFFFF AND PUSH1 0x40 MLOAD PUSH2 0x467 SWAP3 SWAP2 SWAP1 PUSH2 0xAFA JUMP JUMPDEST PUSH1 0x40 MLOAD DUP1 SWAP2 SUB SWAP1 LOG1 PUSH0 PUSH0 PUSH0 SWAP1 SLOAD SWAP1 PUSH2 0x100 EXP SWAP1 DIV PUSH20 0xFFFFFFFFFFFFFFFFFFFFFFFFFFFFFFFFFFFFFFFF AND PUSH20 0xFFFFFFFFFFFFFFFFFFFFFFFFFFFFFFFFFFFFFFFF AND PUSH1 0x4 SLOAD PUSH1 0x40 MLOAD PUSH2 0x4B6 SWAP1 PUSH2 0xB4E JUMP JUMPDEST PUSH0 PUSH1 0x40 MLOAD DUP1 DUP4 SUB DUP2 DUP6 DUP8 GAS CALL SWAP3 POP POP POP RETURNDATASIZE DUP1 PUSH0 DUP2 EQ PUSH2 0x4F0 JUMPI PUSH1 0x40 MLOAD SWAP2 POP PUSH1 0x1F NOT PUSH1 0x3F RETURNDATASIZE ADD AND DUP3 ADD PUSH1 0x40 MSTORE RETURNDATASIZE DUP3 MSTORE RETURNDATASIZE PUSH0 PUSH1 0x20 DUP5 ADD RETURNDATACOPY PUSH2 0x4F5 JUMP JUMPDEST PUSH1 0x60 SWAP2 POP JUMPDEST POP POP SWAP1 POP DUP1 PUSH2 0x539 JUMPI PUSH1 0x40 MLOAD PUSH32 0x8C379A000000000000000000000000000000000000000000000000000000000 DUP2 MSTORE PUSH1 0x4 ADD PUSH2 0x530 SWAP1 PUSH2 0xBAC JUMP JUMPDEST PUSH1 0x40 MLOAD DUP1 SWAP2 SUB SWAP1 REVERT JUMPDEST POP JUMP JUMPDEST PUSH0 PUSH0 SWAP1 SLOAD SWAP1 PUSH2 0x100 EXP SWAP1 DIV PUSH20 0xFFFFFFFFFFFFFFFFFFFFFFFFFFFFFFFFFFFFFFFF AND DUP2 JUMP JUMPDEST PUSH0 PUSH0 PUSH1 0x6 PUSH0 CALLER PUSH20 0xFFFFFFFFFFFFFFFFFFFFFFFFFFFFFFFFFFFFFFFF AND PUSH20 0xFFFFFFFFFFFFFFFFFFFFFFFFFFFFFFFFFFFFFFFF AND DUP2 MSTORE PUSH1 0x20 ADD SWAP1 DUP2 MSTORE PUSH1 0x20 ADD PUSH0 KECCAK256 SLOAD SWAP1 POP PUSH1 0x7 PUSH0 SWAP1 SLOAD SWAP1 PUSH2 0x100 EXP SWAP1 DIV PUSH1 0xFF AND PUSH2 0x5F0 JUMPI PUSH1 0x40 MLOAD PUSH32 0x8C379A000000000000000000000000000000000000000000000000000000000 DUP2 MSTORE PUSH1 0x4 ADD PUSH2 0x5E7 SWAP1 PUSH2 0xC14 JUMP JUMPDEST PUSH1 0x40 MLOAD DUP1 SWAP2 SUB SWAP1 REVERT JUMPDEST PUSH0 DUP2 GT PUSH2 0x5FB JUMPI PUSH0 PUSH0 REVERT JUMPDEST PUSH0 DUP2 GT ISZERO PUSH2 0x700 JUMPI PUSH0 PUSH1 0x6 PUSH0 CALLER PUSH20 0xFFFFFFFFFFFFFFFFFFFFFFFFFFFFFFFFFFFFFFFF AND PUSH20 0xFFFFFFFFFFFFFFFFFFFFFFFFFFFFFFFFFFFFFFFF AND DUP2 MSTORE PUSH1 0x20 ADD SWAP1 DUP2 MSTORE PUSH1 0x20 ADD PUSH0 KECCAK256 DUP2 SWAP1 SSTORE POP PUSH0 CALLER PUSH20 0xFFFFFFFFFFFFFFFFFFFFFFFFFFFFFFFFFFFFFFFF AND DUP3 PUSH1 0x40 MLOAD PUSH2 0x66A SWAP1 PUSH2 0xB4E JUMP JUMPDEST PUSH0 PUSH1 0x40 MLOAD DUP1 DUP4 SUB DUP2 DUP6 DUP8 GAS CALL SWAP3 POP POP POP RETURNDATASIZE DUP1 PUSH0 DUP2 EQ PUSH2 0x6A4 JUMPI PUSH1 0x40 MLOAD SWAP2 POP PUSH1 0x1F NOT PUSH1 0x3F RETURNDATASIZE ADD AND DUP3 ADD PUSH1 0x40 MSTORE RETURNDATASIZE DUP3 MSTORE RETURNDATASIZE PUSH0 PUSH1 0x20 DUP5 ADD RETURNDATACOPY PUSH2 0x6A9 JUMP JUMPDEST PUSH1 0x60 SWAP2 POP JUMPDEST POP POP SWAP1 POP DUP1 PUSH2 0x6FE JUMPI DUP2 PUSH1 0x6 PUSH0 CALLER PUSH20 0xFFFFFFFFFFFFFFFFFFFFFFFFFFFFFFFFFFFFFFFF AND PUSH20 0xFFFFFFFFFFFFFFFFFFFFFFFFFFFFFFFFFFFFFFFF AND DUP2 MSTORE PUSH1 0x20 ADD SWAP1 DUP2 MSTORE PUSH1 0x20 ADD PUSH0 KECCAK256 DUP2 SWAP1 SSTORE POP PUSH0 SWAP3 POP POP POP PUSH2 0x706 JUMP JUMPDEST POP JUMPDEST PUSH1 0x1 SWAP2 POP POP JUMPDEST SWAP1 JUMP JUMPDEST PUSH1 0x1 SLOAD DUP2 JUMP JUMPDEST PUSH1 0x60 PUSH1 0x7 PUSH0 SWAP1 SLOAD SWAP1 PUSH2 0x100 EXP SWAP1 DIV PUSH1 0xFF AND PUSH2 0x75F JUMPI PUSH1 0x40 MLOAD PUSH32 0x8C379A000000000000000000000000000000000000000000000000000000000 DUP2 MSTORE PUSH1 0x4 ADD PUSH2 0x756 SWAP1 PUSH2 0xC14 JUMP JUMPDEST PUSH1 0x40 MLOAD DUP1 SWAP2 SUB SWAP1 REVERT JUMPDEST CALLER PUSH20 0xFFFFFFFFFFFFFFFFFFFFFFFFFFFFFFFFFFFFFFFF AND PUSH1 0x3 PUSH0 SWAP1 SLOAD SWAP1 PUSH2 0x100 EXP SWAP1 DIV PUSH20 0xFFFFFFFFFFFFFFFFFFFFFFFFFFFFFFFFFFFFFFFF AND PUSH20 0xFFFFFFFFFFFFFFFFFFFFFFFFFFFFFFFFFFFFFFFF AND EQ PUSH2 0x7EE JUMPI PUSH1 0x40 MLOAD PUSH32 0x8C379A000000000000000000000000000000000000000000000000000000000 DUP2 MSTORE PUSH1 0x4 ADD PUSH2 0x7E5 SWAP1 PUSH2 0xC7C JUMP JUMPDEST PUSH1 0x40 MLOAD DUP1 SWAP2 SUB SWAP1 REVERT JUMPDEST PUSH1 0x2 DUP1 SLOAD PUSH2 0x7FB SWAP1 PUSH2 0xCC7 JUMP JUMPDEST DUP1 PUSH1 0x1F ADD PUSH1 0x20 DUP1 SWAP2 DIV MUL PUSH1 0x20 ADD PUSH1 0x40 MLOAD SWAP1 DUP2 ADD PUSH1 0x40 MSTORE DUP1 SWAP3 SWAP2 SWAP1 DUP2 DUP2 MSTORE PUSH1 0x20 ADD DUP3 DUP1 SLOAD PUSH2 0x827 SWAP1 PUSH2 0xCC7 JUMP JUMPDEST DUP1 ISZERO PUSH2 0x872 JUMPI DUP1 PUSH1 0x1F LT PUSH2 0x849 JUMPI PUSH2 0x100 DUP1 DUP4 SLOAD DIV MUL DUP4 MSTORE SWAP2 PUSH1 0x20 ADD SWAP2 PUSH2 0x872 JUMP JUMPDEST DUP3 ADD SWAP2 SWAP1 PUSH0 MSTORE PUSH1 0x20 PUSH0 KECCAK256 SWAP1 JUMPDEST DUP2 SLOAD DUP2 MSTORE SWAP1 PUSH1 0x1 ADD SWAP1 PUSH1 0x20 ADD DUP1 DUP4 GT PUSH2 0x855 JUMPI DUP3 SWAP1 SUB PUSH1 0x1F AND DUP3 ADD SWAP2 JUMPDEST POP POP POP POP POP SWAP1 POP SWAP1 JUMP JUMPDEST PUSH1 0x3 PUSH0 SWAP1 SLOAD SWAP1 PUSH2 0x100 EXP SWAP1 DIV PUSH20 0xFFFFFFFFFFFFFFFFFFFFFFFFFFFFFFFFFFFFFFFF AND DUP2 JUMP JUMPDEST PUSH1 0x4 SLOAD DUP2 JUMP JUMPDEST PUSH1 0x5 SLOAD DUP2 JUMP JUMPDEST PUSH0 PUSH20 0xFFFFFFFFFFFFFFFFFFFFFFFFFFFFFFFFFFFFFFFF DUP3 AND SWAP1 POP SWAP2 SWAP1 POP JUMP JUMPDEST PUSH0 PUSH2 0x8D6 DUP3 PUSH2 0x8AD JUMP JUMPDEST SWAP1 POP SWAP2 SWAP1 POP JUMP JUMPDEST PUSH2 0x8E6 DUP2 PUSH2 0x8CC JUMP JUMPDEST DUP3 MSTORE POP POP JUMP JUMPDEST PUSH0 PUSH1 0x20 DUP3 ADD SWAP1 POP PUSH2 0x8FF PUSH0 DUP4 ADD DUP5 PUSH2 0x8DD JUMP JUMPDEST SWAP3 SWAP2 POP POP JUMP JUMPDEST PUSH0 DUP2 ISZERO ISZERO SWAP1 POP SWAP2 SWAP1 POP JUMP JUMPDEST PUSH2 0x919 DUP2 PUSH2 0x905 JUMP JUMPDEST DUP3 MSTORE POP POP JUMP JUMPDEST PUSH0 PUSH1 0x20 DUP3 ADD SWAP1 POP PUSH2 0x932 PUSH0 DUP4 ADD DUP5 PUSH2 0x910 JUMP JUMPDEST SWAP3 SWAP2 POP POP JUMP JUMPDEST PUSH0 DUP2 SWAP1 POP SWAP2 SWAP1 POP JUMP JUMPDEST PUSH2 0x94A DUP2 PUSH2 0x938 JUMP JUMPDEST DUP3 MSTORE POP POP JUMP JUMPDEST PUSH0 PUSH1 0x20 DUP3 ADD SWAP1 POP PUSH2 0x963 PUSH0 DUP4 ADD DUP5 PUSH2 0x941 JUMP JUMPDEST SWAP3 SWAP2 POP POP JUMP JUMPDEST PUSH0 DUP2 MLOAD SWAP1 POP SWAP2 SWAP1 POP JUMP JUMPDEST PUSH0 DUP3 DUP3 MSTORE PUSH1 0x20 DUP3 ADD SWAP1 POP SWAP3 SWAP2 POP POP JUMP JUMPDEST DUP3 DUP2 DUP4 MCOPY PUSH0 DUP4 DUP4 ADD MSTORE POP POP POP JUMP JUMPDEST PUSH0 PUSH1 0x1F NOT PUSH1 0x1F DUP4 ADD AND SWAP1 POP SWAP2 SWAP1 POP JUMP JUMPDEST PUSH0 PUSH2 0x9AB DUP3 PUSH2 0x969 JUMP JUMPDEST PUSH2 0x9B5 DUP2 DUP6 PUSH2 0x973 JUMP JUMPDEST SWAP4 POP PUSH2 0x9C5 DUP2 DUP6 PUSH1 0x20 DUP7 ADD PUSH2 0x983 JUMP JUMPDEST PUSH2 0x9CE DUP2 PUSH2 0x991 JUMP JUMPDEST DUP5 ADD SWAP2 POP POP SWAP3 SWAP2 POP POP JUMP JUMPDEST PUSH0 PUSH1 0x20 DUP3 ADD SWAP1 POP DUP2 DUP2 SUB PUSH0 DUP4 ADD MSTORE PUSH2 0x9F1 DUP2 DUP5 PUSH2 0x9A1 JUMP JUMPDEST SWAP1 POP SWAP3 SWAP2 POP POP JUMP JUMPDEST PUSH0 PUSH2 0xA03 DUP3 PUSH2 0x8AD JUMP JUMPDEST SWAP1 POP SWAP2 SWAP1 POP JUMP JUMPDEST PUSH2 0xA13 DUP2 PUSH2 0x9F9 JUMP JUMPDEST DUP3 MSTORE POP POP JUMP JUMPDEST PUSH0 PUSH1 0x20 DUP3 ADD SWAP1 POP PUSH2 0xA2C PUSH0 DUP4 ADD DUP5 PUSH2 0xA0A JUMP JUMPDEST SWAP3 SWAP2 POP POP JUMP JUMPDEST PUSH32 0x4E487B7100000000000000000000000000000000000000000000000000000000 PUSH0 MSTORE PUSH1 0x11 PUSH1 0x4 MSTORE PUSH1 0x24 PUSH0 REVERT JUMPDEST PUSH0 PUSH2 0xA69 DUP3 PUSH2 0x938 JUMP JUMPDEST SWAP2 POP PUSH2 0xA74 DUP4 PUSH2 0x938 JUMP JUMPDEST SWAP3 POP DUP3 DUP3 ADD SWAP1 POP DUP1 DUP3 GT ISZERO PUSH2 0xA8C JUMPI PUSH2 0xA8B PUSH2 0xA32 JUMP JUMPDEST JUMPDEST SWAP3 SWAP2 POP POP JUMP JUMPDEST PUSH0 PUSH2 0xA9C DUP3 PUSH2 0x938 JUMP JUMPDEST SWAP2 POP PUSH2 0xAA7 DUP4 PUSH2 0x938 JUMP JUMPDEST SWAP3 POP DUP3 DUP3 SUB SWAP1 POP DUP2 DUP2 GT ISZERO PUSH2 0xABF JUMPI PUSH2 0xABE PUSH2 0xA32 JUMP JUMPDEST JUMPDEST SWAP3 SWAP2 POP POP JUMP JUMPDEST PUSH0 PUSH1 0x60 DUP3 ADD SWAP1 POP PUSH2 0xAD8 PUSH0 DUP4 ADD DUP7 PUSH2 0xA0A JUMP JUMPDEST PUSH2 0xAE5 PUSH1 0x20 DUP4 ADD DUP6 PUSH2 0x941 JUMP JUMPDEST PUSH2 0xAF2 PUSH1 0x40 DUP4 ADD DUP5 PUSH2 0x941 JUMP JUMPDEST SWAP5 SWAP4 POP POP POP POP JUMP JUMPDEST PUSH0 PUSH1 0x40 DUP3 ADD SWAP1 POP PUSH2 0xB0D PUSH0 DUP4 ADD DUP6 PUSH2 0x941 JUMP JUMPDEST PUSH2 0xB1A PUSH1 0x20 DUP4 ADD DUP5 PUSH2 0xA0A JUMP JUMPDEST SWAP4 SWAP3 POP POP POP JUMP JUMPDEST PUSH0 DUP2 SWAP1 POP SWAP3 SWAP2 POP POP JUMP JUMPDEST POP JUMP JUMPDEST PUSH0 PUSH2 0xB39 PUSH0 DUP4 PUSH2 0xB21 JUMP JUMPDEST SWAP2 POP PUSH2 0xB44 DUP3 PUSH2 0xB2B JUMP JUMPDEST PUSH0 DUP3 ADD SWAP1 POP SWAP2 SWAP1 POP JUMP JUMPDEST PUSH0 PUSH2 0xB58 DUP3 PUSH2 0xB2E JUMP JUMPDEST SWAP2 POP DUP2 SWAP1 POP SWAP2 SWAP1 POP JUMP JUMPDEST PUSH32 0x53656E64696E67206D6F6E6579206469646E2774207375636365656400000000 PUSH0 DUP3 ADD MSTORE POP JUMP JUMPDEST PUSH0 PUSH2 0xB96 PUSH1 0x1C DUP4 PUSH2 0x973 JUMP JUMPDEST SWAP2 POP PUSH2 0xBA1 DUP3 PUSH2 0xB62 JUMP JUMPDEST PUSH1 0x20 DUP3 ADD SWAP1 POP SWAP2 SWAP1 POP JUMP JUMPDEST PUSH0 PUSH1 0x20 DUP3 ADD SWAP1 POP DUP2 DUP2 SUB PUSH0 DUP4 ADD MSTORE PUSH2 0xBC3 DUP2 PUSH2 0xB8A JUMP JUMPDEST SWAP1 POP SWAP2 SWAP1 POP JUMP JUMPDEST PUSH32 0x41756374696F6E20686173206E6F742079657420656E64656400000000000000 PUSH0 DUP3 ADD MSTORE POP JUMP JUMPDEST PUSH0 PUSH2 0xBFE PUSH1 0x19 DUP4 PUSH2 0x973 JUMP JUMPDEST SWAP2 POP PUSH2 0xC09 DUP3 PUSH2 0xBCA JUMP JUMPDEST PUSH1 0x20 DUP3 ADD SWAP1 POP SWAP2 SWAP1 POP JUMP JUMPDEST PUSH0 PUSH1 0x20 DUP3 ADD SWAP1 POP DUP2 DUP2 SUB PUSH0 DUP4 ADD MSTORE PUSH2 0xC2B DUP2 PUSH2 0xBF2 JUMP JUMPDEST SWAP1 POP SWAP2 SWAP1 POP JUMP JUMPDEST PUSH32 0x4E6F742068696768657374206269646465720000000000000000000000000000 PUSH0 DUP3 ADD MSTORE POP JUMP JUMPDEST PUSH0 PUSH2 0xC66 PUSH1 0x12 DUP4 PUSH2 0x973 JUMP JUMPDEST SWAP2 POP PUSH2 0xC71 DUP3 PUSH2 0xC32 JUMP JUMPDEST PUSH1 0x20 DUP3 ADD SWAP1 POP SWAP2 SWAP1 POP JUMP JUMPDEST PUSH0 PUSH1 0x20 DUP3 ADD SWAP1 POP DUP2 DUP2 SUB PUSH0 DUP4 ADD MSTORE PUSH2 0xC93 DUP2 PUSH2 0xC5A JUMP JUMPDEST SWAP1 POP SWAP2 SWAP1 POP JUMP JUMPDEST PUSH32 0x4E487B7100000000000000000000000000000000000000000000000000000000 PUSH0 MSTORE PUSH1 0x22 PUSH1 0x4 MSTORE PUSH1 0x24 PUSH0 REVERT JUMPDEST PUSH0 PUSH1 0x2 DUP3 DIV SWAP1 POP PUSH1 0x1 DUP3 AND DUP1 PUSH2 0xCDE JUMPI PUSH1 0x7F DUP3 AND SWAP2 POP JUMPDEST PUSH1 0x20 DUP3 LT DUP2 SUB PUSH2 0xCF1 JUMPI PUSH2 0xCF0 PUSH2 0xC9A JUMP JUMPDEST JUMPDEST POP SWAP2 SWAP1 POP JUMP INVALID LOG2 PUSH5 0x6970667358 0x22 SLT KECCAK256 0x2C CREATE2 0xCB 0x29 SLOAD SWAPN 0x41 0xC PUSH24 0xF38F65C002CC91AD8D12C1B6766408DFBC5DF414FF4BD464 PUSH20 0x6F6C634300081F00330000000000000000000000 "
				},
				"gasEstimates": {
					"creation": {
						"codeDepositCost": "674600",
						"executionCost": "infinite",
						"totalCost": "infinite"
					},
					"external": {
						"auctionEnd()": "infinite",
						"auctionEndTime()": "2425",
						"beneficiary()": "2552",
						"bid()": "infinite",
						"difference()": "2513",
						"getSecretMessage()": "infinite",
						"highestBid()": "2491",
						"highestBidder()": "2552",
						"withdraw()": "infinite"
					}
				},
				"methodIdentifiers": {
					"auctionEnd()": "2a24f46c",
					"auctionEndTime()": "4b449cba",
					"beneficiary()": "38af3eed",
					"bid()": "1998aeef",
					"difference()": "dd56653c",
					"getSecretMessage()": "4d2102d4",
					"highestBid()": "d57bde79",
					"highestBidder()": "91f90157",
					"withdraw()": "3ccfd60b"
				}
			},
			"storageLayout": {
				"storage": [
					{
						"astId": 3,
						"contract": "contracts/Auction.sol:Auction",
						"label": "beneficiary",
						"offset": 0,
						"slot": "0",
						"type": "t_address_payable"
					},
					{
						"astId": 5,
						"contract": "contracts/Auction.sol:Auction",
						"label": "auctionEndTime",
						"offset": 0,
						"slot": "1",
						"type": "t_uint256"
					},
					{
						"astId": 7,
						"contract": "contracts/Auction.sol:Auction",
						"label": "secretMessage",
						"offset": 0,
						"slot": "2",
						"type": "t_string_storage"
					},
					{
						"astId": 9,
						"contract": "contracts/Auction.sol:Auction",
						"label": "highestBidder",
						"offset": 0,
						"slot": "3",
						"type": "t_address"
					},
					{
						"astId": 11,
						"contract": "contracts/Auction.sol:Auction",
						"label": "highestBid",
						"offset": 0,
						"slot": "4",
						"type": "t_uint256"
					},
					{
						"astId": 13,
						"contract": "contracts/Auction.sol:Auction",
						"label": "difference",
						"offset": 0,
						"slot": "5",
						"type": "t_uint256"
					},
					{
						"astId": 17,
						"contract": "contracts/Auction.sol:Auction",
						"label": "pendingReturns",
						"offset": 0,
						"slot": "6",
						"type": "t_mapping(t_address,t_uint256)"
					},
					{
						"astId": 19,
						"contract": "contracts/Auction.sol:Auction",
						"label": "ended",
						"offset": 0,
						"slot": "7",
						"type": "t_bool"
					}
				],
				"types": {
					"t_address": {
						"encoding": "inplace",
						"label": "address",
						"numberOfBytes": "20"
					},
					"t_address_payable": {
						"encoding": "inplace",
						"label": "address payable",
						"numberOfBytes": "20"
					},
					"t_bool": {
						"encoding": "inplace",
						"label": "bool",
						"numberOfBytes": "1"
					},
					"t_mapping(t_address,t_uint256)": {
						"encoding": "mapping",
						"key": "t_address",
						"label": "mapping(address => uint256)",
						"numberOfBytes": "32",
						"value": "t_uint256"
					},
					"t_string_storage": {
						"encoding": "bytes",
						"label": "string",
						"numberOfBytes": "32"
					},
					"t_uint256": {
						"encoding": "inplace",
						"label": "uint256",
						"numberOfBytes": "32"
					}
				}
			},
			"userdoc": {
				"kind": "user",
				"methods": {},
				"version": 1
			}
		}
	}
}